{
  "contractName": "Catscontract",
  "abi": [
    {
      "anonymous": false,
      "inputs": [
        {
          "indexed": true,
          "internalType": "address",
          "name": "owner",
          "type": "address"
        },
        {
          "indexed": true,
          "internalType": "address",
          "name": "approved",
          "type": "address"
        },
        {
          "indexed": true,
          "internalType": "uint256",
          "name": "tokenId",
          "type": "uint256"
        }
      ],
      "name": "Approval",
      "type": "event"
    },
    {
      "anonymous": false,
      "inputs": [
        {
          "indexed": true,
          "internalType": "address",
          "name": "owner",
          "type": "address"
        },
        {
          "indexed": true,
          "internalType": "address",
          "name": "operator",
          "type": "address"
        },
        {
          "indexed": false,
          "internalType": "bool",
          "name": "approved",
          "type": "bool"
        }
      ],
      "name": "ApprovalForAll",
      "type": "event"
    },
    {
      "anonymous": false,
      "inputs": [
        {
          "indexed": false,
          "internalType": "address",
          "name": "owner",
          "type": "address"
        },
        {
          "indexed": false,
          "internalType": "uint256",
          "name": "newCatId",
          "type": "uint256"
        },
        {
          "indexed": false,
          "internalType": "uint256",
          "name": "mumId",
          "type": "uint256"
        },
        {
          "indexed": false,
          "internalType": "uint256",
          "name": "dadId",
          "type": "uint256"
        },
        {
          "indexed": false,
          "internalType": "uint256",
          "name": "genes",
          "type": "uint256"
        }
      ],
      "name": "Birth",
      "type": "event"
    },
    {
      "anonymous": false,
      "inputs": [
        {
          "indexed": true,
          "internalType": "address",
          "name": "from",
          "type": "address"
        },
        {
          "indexed": true,
          "internalType": "address",
          "name": "to",
          "type": "address"
        },
        {
          "indexed": true,
          "internalType": "uint256",
          "name": "tokenId",
          "type": "uint256"
        }
      ],
      "name": "Transfer",
      "type": "event"
    },
    {
      "anonymous": false,
      "inputs": [
        {
          "indexed": true,
          "internalType": "address",
          "name": "owner",
          "type": "address"
        },
        {
          "indexed": true,
          "internalType": "uint256",
          "name": "tokenId",
          "type": "uint256"
        },
        {
          "indexed": false,
          "internalType": "uint256",
          "name": "_genesUpdated",
          "type": "uint256"
        },
        {
          "indexed": false,
          "internalType": "uint256",
          "name": "oldGenes",
          "type": "uint256"
        }
      ],
      "name": "UpdateEvent",
      "type": "event"
    },
    {
      "constant": true,
      "inputs": [
        {
          "internalType": "uint256",
          "name": "",
          "type": "uint256"
        }
      ],
      "name": "catIndexToOwner",
      "outputs": [
        {
          "internalType": "address",
          "name": "",
          "type": "address"
        }
      ],
      "payable": false,
      "stateMutability": "view",
      "type": "function"
    },
    {
      "constant": false,
      "inputs": [
        {
          "internalType": "address",
          "name": "newOwner",
          "type": "address"
        }
      ],
      "name": "changeOwner",
      "outputs": [],
      "payable": false,
      "stateMutability": "nonpayable",
      "type": "function"
    },
    {
      "constant": true,
      "inputs": [],
      "name": "gen0Counter",
      "outputs": [
        {
          "internalType": "uint256",
          "name": "",
          "type": "uint256"
        }
      ],
      "payable": false,
      "stateMutability": "view",
      "type": "function"
    },
    {
      "constant": true,
      "inputs": [],
      "name": "name",
      "outputs": [
        {
          "internalType": "string",
          "name": "",
          "type": "string"
        }
      ],
      "payable": false,
      "stateMutability": "view",
      "type": "function"
    },
    {
      "constant": true,
      "inputs": [
        {
          "internalType": "uint256",
          "name": "",
          "type": "uint256"
        }
      ],
      "name": "neonCatIndexToApproved",
      "outputs": [
        {
          "internalType": "address",
          "name": "",
          "type": "address"
        }
      ],
      "payable": false,
      "stateMutability": "view",
      "type": "function"
    },
    {
      "constant": true,
      "inputs": [],
      "name": "owner",
      "outputs": [
        {
          "internalType": "address",
          "name": "",
          "type": "address"
        }
      ],
      "payable": false,
      "stateMutability": "view",
      "type": "function"
    },
    {
      "constant": true,
      "inputs": [
        {
          "internalType": "address",
          "name": "",
          "type": "address"
        },
        {
          "internalType": "uint256",
          "name": "",
          "type": "uint256"
        }
      ],
      "name": "ownerCats",
      "outputs": [
        {
          "internalType": "uint256",
          "name": "",
          "type": "uint256"
        }
      ],
      "payable": false,
      "stateMutability": "view",
      "type": "function"
    },
    {
      "constant": true,
      "inputs": [],
      "name": "supplyLimitGen0",
      "outputs": [
        {
          "internalType": "uint256",
          "name": "",
          "type": "uint256"
        }
      ],
      "payable": false,
      "stateMutability": "view",
      "type": "function"
    },
    {
      "constant": true,
      "inputs": [],
      "name": "symbol",
      "outputs": [
        {
          "internalType": "string",
          "name": "",
          "type": "string"
        }
      ],
      "payable": false,
      "stateMutability": "view",
      "type": "function"
    },
    {
      "constant": false,
      "inputs": [
        {
          "internalType": "uint256",
          "name": "_dadId",
          "type": "uint256"
        },
        {
          "internalType": "uint256",
          "name": "_mumId",
          "type": "uint256"
        }
      ],
      "name": "breed",
      "outputs": [
        {
          "internalType": "uint256",
          "name": "",
          "type": "uint256"
        }
      ],
      "payable": false,
      "stateMutability": "nonpayable",
      "type": "function"
    },
    {
      "constant": false,
      "inputs": [
        {
          "internalType": "string",
          "name": "_petName",
          "type": "string"
        },
        {
          "internalType": "uint256",
          "name": "_tokenId",
          "type": "uint256"
        }
      ],
      "name": "catName",
      "outputs": [],
      "payable": false,
      "stateMutability": "nonpayable",
      "type": "function"
    },
    {
      "constant": true,
      "inputs": [
        {
          "internalType": "bytes4",
          "name": "_interfaceId",
          "type": "bytes4"
        }
      ],
      "name": "supportsInterface",
      "outputs": [
        {
          "internalType": "bool",
          "name": "",
          "type": "bool"
        }
      ],
      "payable": false,
      "stateMutability": "view",
      "type": "function"
    },
    {
      "constant": false,
      "inputs": [
        {
          "internalType": "uint256",
          "name": "_genes",
          "type": "uint256"
        }
      ],
      "name": "createCatGen0",
      "outputs": [
        {
          "internalType": "uint256",
          "name": "",
          "type": "uint256"
        }
      ],
      "payable": false,
      "stateMutability": "nonpayable",
      "type": "function"
    },
    {
      "constant": false,
      "inputs": [
        {
          "internalType": "uint256",
          "name": "_tokenId",
          "type": "uint256"
        },
        {
          "internalType": "uint256",
          "name": "_genesUpdated",
          "type": "uint256"
        }
      ],
      "name": "updateCat",
      "outputs": [
        {
          "internalType": "uint256",
          "name": "",
          "type": "uint256"
        }
      ],
      "payable": false,
      "stateMutability": "nonpayable",
      "type": "function"
    },
    {
      "constant": true,
      "inputs": [
        {
          "internalType": "address",
          "name": "_owner",
          "type": "address"
        }
      ],
      "name": "getNeonCatsPerOwner",
      "outputs": [
        {
          "internalType": "uint256[]",
          "name": "",
          "type": "uint256[]"
        }
      ],
      "payable": false,
      "stateMutability": "view",
      "type": "function"
    },
    {
      "constant": true,
      "inputs": [
        {
          "internalType": "uint256",
          "name": "_tokenId",
          "type": "uint256"
        }
      ],
      "name": "getCat",
      "outputs": [
        {
          "internalType": "uint256",
          "name": "genes",
          "type": "uint256"
        },
        {
          "internalType": "uint256",
          "name": "birthTime",
          "type": "uint256"
        },
        {
          "internalType": "uint256",
          "name": "mumId",
          "type": "uint256"
        },
        {
          "internalType": "uint256",
          "name": "dadId",
          "type": "uint256"
        },
        {
          "internalType": "uint256",
          "name": "generation",
          "type": "uint256"
        },
        {
          "internalType": "uint8",
          "name": "energy",
          "type": "uint8"
        },
        {
          "internalType": "string",
          "name": "petName",
          "type": "string"
        }
      ],
      "payable": false,
      "stateMutability": "view",
      "type": "function"
    },
    {
      "constant": true,
      "inputs": [
        {
          "internalType": "address",
          "name": "owner",
          "type": "address"
        }
      ],
      "name": "balanceOf",
      "outputs": [
        {
          "internalType": "uint256",
          "name": "balance",
          "type": "uint256"
        }
      ],
      "payable": false,
      "stateMutability": "view",
      "type": "function"
    },
    {
      "constant": true,
      "inputs": [],
      "name": "totalSupply",
      "outputs": [
        {
          "internalType": "uint256",
          "name": "",
          "type": "uint256"
        }
      ],
      "payable": false,
      "stateMutability": "view",
      "type": "function"
    },
    {
      "constant": true,
      "inputs": [
        {
          "internalType": "uint256",
          "name": "_tokenId",
          "type": "uint256"
        }
      ],
      "name": "ownerOf",
      "outputs": [
        {
          "internalType": "address",
          "name": "",
          "type": "address"
        }
      ],
      "payable": false,
      "stateMutability": "view",
      "type": "function"
    },
    {
      "constant": false,
      "inputs": [
        {
          "internalType": "address",
          "name": "_from",
          "type": "address"
        },
        {
          "internalType": "address",
          "name": "_to",
          "type": "address"
        },
        {
          "internalType": "uint256",
          "name": "_tokenId",
          "type": "uint256"
        }
      ],
      "name": "safeTransferFrom",
      "outputs": [],
      "payable": false,
      "stateMutability": "nonpayable",
      "type": "function"
    },
    {
      "constant": false,
      "inputs": [
        {
          "internalType": "address",
          "name": "_from",
          "type": "address"
        },
        {
          "internalType": "address",
          "name": "_to",
          "type": "address"
        },
        {
          "internalType": "uint256",
          "name": "_tokenId",
          "type": "uint256"
        },
        {
          "internalType": "bytes",
          "name": "_data",
          "type": "bytes"
        }
      ],
      "name": "safeTransferFrom",
      "outputs": [],
      "payable": false,
      "stateMutability": "nonpayable",
      "type": "function"
    },
    {
      "constant": false,
      "inputs": [
        {
          "internalType": "address",
          "name": "_to",
          "type": "address"
        },
        {
          "internalType": "uint256",
          "name": "_tokenId",
          "type": "uint256"
        }
      ],
      "name": "transfer",
      "outputs": [],
      "payable": false,
      "stateMutability": "nonpayable",
      "type": "function"
    },
    {
      "constant": true,
      "inputs": [
        {
          "internalType": "address",
          "name": "owner",
          "type": "address"
        },
        {
          "internalType": "address",
          "name": "operator",
          "type": "address"
        }
      ],
      "name": "isApprovedForAll",
      "outputs": [
        {
          "internalType": "bool",
          "name": "",
          "type": "bool"
        }
      ],
      "payable": false,
      "stateMutability": "view",
      "type": "function"
    },
    {
      "constant": false,
      "inputs": [
        {
          "internalType": "address",
          "name": "_from",
          "type": "address"
        },
        {
          "internalType": "address",
          "name": "_to",
          "type": "address"
        },
        {
          "internalType": "uint256",
          "name": "_tokenId",
          "type": "uint256"
        }
      ],
      "name": "transferFrom",
      "outputs": [],
      "payable": false,
      "stateMutability": "nonpayable",
      "type": "function"
    },
    {
      "constant": false,
      "inputs": [
        {
          "internalType": "address",
          "name": "_to",
          "type": "address"
        },
        {
          "internalType": "uint256",
          "name": "_tokenId",
          "type": "uint256"
        }
      ],
      "name": "approve",
      "outputs": [],
      "payable": false,
      "stateMutability": "nonpayable",
      "type": "function"
    },
    {
      "constant": true,
      "inputs": [
        {
          "internalType": "uint256",
          "name": "_tokenId",
          "type": "uint256"
        }
      ],
      "name": "getApproved",
      "outputs": [
        {
          "internalType": "address",
          "name": "",
          "type": "address"
        }
      ],
      "payable": false,
      "stateMutability": "view",
      "type": "function"
    },
    {
      "constant": false,
      "inputs": [
        {
          "internalType": "address",
          "name": "operator",
          "type": "address"
        },
        {
          "internalType": "bool",
          "name": "approved",
          "type": "bool"
        }
      ],
      "name": "setApprovalForAll",
      "outputs": [],
      "payable": false,
      "stateMutability": "nonpayable",
      "type": "function"
    }
  ],
  "bytecode": "0x6080604052336000806101000a81548173ffffffffffffffffffffffffffffffffffffffff021916908373ffffffffffffffffffffffffffffffffffffffff160217905550612808806100536000396000f3fe608060405234801561001057600080fd5b50600436106101a95760003560e01c80636d6615ce116100f9578063a9059cbb11610097578063d674595811610071578063d674595814610b35578063d9ecad7b14610ba3578063e985e9c514610bef578063ef5e94aa14610c6b576101a9565b8063a9059cbb146109b6578063abadce7814610a04578063b88d4fde14610a72576101a9565b80638da5cb5b116100d35780638da5cb5b1461085557806395d89b411461089f578063a22cb46514610922578063a6f9dae114610972576101a9565b80636d6615ce1461074657806370a08231146107df57806382b062c014610837576101a9565b806323b872dd1161016657806342842e0e1161014057806342842e0e146105475780634da2b48e146105b55780636352211e1461068c578063698250fa146106fa576101a9565b806323b872dd146103b25780632eae989d146104205780633c493515146104e5576101a9565b806301ffc9a7146101ae57806306fdde0314610213578063081812fc14610296578063095ea7b31461030457806312a55c961461035257806318160ddd14610394575b600080fd5b6101f9600480360360208110156101c457600080fd5b8101908080357bffffffffffffffffffffffffffffffffffffffffffffffffffffffff19169060200190929190505050610c89565b604051808215151515815260200191505060405180910390f35b61021b610d29565b6040518080602001828103825283818151815260200191508051906020019080838360005b8381101561025b578082015181840152602081019050610240565b50505050905090810190601f1680156102885780820380516001836020036101000a031916815260200191505b509250505060405180910390f35b6102c2600480360360208110156102ac57600080fd5b8101908080359060200190929190505050610d62565b604051808273ffffffffffffffffffffffffffffffffffffffff1673ffffffffffffffffffffffffffffffffffffffff16815260200191505060405180910390f35b6103506004803603604081101561031a57600080fd5b81019080803573ffffffffffffffffffffffffffffffffffffffff16906020019092919080359060200190929190505050610db0565b005b61037e6004803603602081101561036857600080fd5b8101908080359060200190929190505050610e2c565b6040518082815260200191505060405180910390f35b61039c610ef6565b6040518082815260200191505060405180910390f35b61041e600480360360608110156103c857600080fd5b81019080803573ffffffffffffffffffffffffffffffffffffffff169060200190929190803573ffffffffffffffffffffffffffffffffffffffff16906020019092919080359060200190929190505050610f03565b005b6104e36004803603604081101561043657600080fd5b810190808035906020019064010000000081111561045357600080fd5b82018360208201111561046557600080fd5b8035906020019184600183028401116401000000008311171561048757600080fd5b91908080601f016020809104026020016040519081016040528093929190818152602001838380828437600081840152601f19601f82011690508083019250505050505050919291929080359060200190929190505050610f28565b005b610531600480360360408110156104fb57600080fd5b81019080803573ffffffffffffffffffffffffffffffffffffffff169060200190929190803590602001909291905050506110af565b6040518082815260200191505060405180910390f35b6105b36004803603606081101561055d57600080fd5b81019080803573ffffffffffffffffffffffffffffffffffffffff169060200190929190803573ffffffffffffffffffffffffffffffffffffffff169060200190929190803590602001909291905050506110dd565b005b6105e1600480360360208110156105cb57600080fd5b81019080803590602001909291905050506110fd565b604051808881526020018781526020018681526020018581526020018481526020018360ff1660ff16815260200180602001828103825283818151815260200191508051906020019080838360005b8381101561064b578082015181840152602081019050610630565b50505050905090810190601f1680156106785780820380516001836020036101000a031916815260200191505b509850505050505050505060405180910390f35b6106b8600480360360208110156106a257600080fd5b810190808035906020019092919050505061130a565b604051808273ffffffffffffffffffffffffffffffffffffffff1673ffffffffffffffffffffffffffffffffffffffff16815260200191505060405180910390f35b6107306004803603604081101561071057600080fd5b810190808035906020019092919080359060200190929190505050611347565b6040518082815260200191505060405180910390f35b6107886004803603602081101561075c57600080fd5b81019080803573ffffffffffffffffffffffffffffffffffffffff16906020019092919050505061140d565b6040518080602001828103825283818151815260200191508051906020019060200280838360005b838110156107cb5780820151818401526020810190506107b0565b505050509050019250505060405180910390f35b610821600480360360208110156107f557600080fd5b81019080803573ffffffffffffffffffffffffffffffffffffffff16906020019092919050505061153a565b6040518082815260200191505060405180910390f35b61083f611583565b6040518082815260200191505060405180910390f35b61085d611588565b604051808273ffffffffffffffffffffffffffffffffffffffff1673ffffffffffffffffffffffffffffffffffffffff16815260200191505060405180910390f35b6108a76115ad565b6040518080602001828103825283818151815260200191508051906020019080838360005b838110156108e75780820151818401526020810190506108cc565b50505050905090810190601f1680156109145780820380516001836020036101000a031916815260200191505b509250505060405180910390f35b6109706004803603604081101561093857600080fd5b81019080803573ffffffffffffffffffffffffffffffffffffffff1690602001909291908035151590602001909291905050506115e6565b005b6109b46004803603602081101561098857600080fd5b81019080803573ffffffffffffffffffffffffffffffffffffffff169060200190929190505050611696565b005b610a02600480360360408110156109cc57600080fd5b81019080803573ffffffffffffffffffffffffffffffffffffffff16906020019092919080359060200190929190505050611732565b005b610a3060048036036020811015610a1a57600080fd5b81019080803590602001909291905050506117c7565b604051808273ffffffffffffffffffffffffffffffffffffffff1673ffffffffffffffffffffffffffffffffffffffff16815260200191505060405180910390f35b610b3360048036036080811015610a8857600080fd5b81019080803573ffffffffffffffffffffffffffffffffffffffff169060200190929190803573ffffffffffffffffffffffffffffffffffffffff1690602001909291908035906020019092919080359060200190640100000000811115610aef57600080fd5b820183602082011115610b0157600080fd5b80359060200191846001830284011164010000000083111715610b2357600080fd5b90919293919293905050506117fa565b005b610b6160048036036020811015610b4b57600080fd5b8101908080359060200190929190505050611866565b604051808273ffffffffffffffffffffffffffffffffffffffff1673ffffffffffffffffffffffffffffffffffffffff16815260200191505060405180910390f35b610bd960048036036040811015610bb957600080fd5b810190808035906020019092919080359060200190929190505050611899565b6040518082815260200191505060405180910390f35b610c5160048036036040811015610c0557600080fd5b81019080803573ffffffffffffffffffffffffffffffffffffffff169060200190929190803573ffffffffffffffffffffffffffffffffffffffff169060200190929190505050611ab2565b604051808215151515815260200191505060405180910390f35b610c73611b46565b6040518082815260200191505060405180910390f35b60006380ac58cd60e01b7bffffffffffffffffffffffffffffffffffffffffffffffffffffffff1916827bffffffffffffffffffffffffffffffffffffffffffffffffffffffff19161480610d2257506301ffc9a760e01b7bffffffffffffffffffffffffffffffffffffffffffffffffffffffff1916827bffffffffffffffffffffffffffffffffffffffffffffffffffffffff1916145b9050919050565b6040518060400160405280600881526020017f4e656f6e6361747300000000000000000000000000000000000000000000000081525081565b60006001805490508210610d7557600080fd5b6005600083815260200190815260200160002060009054906101000a900473ffffffffffffffffffffffffffffffffffffffff169050919050565b610dba3382611b4c565b610dc357600080fd5b610dcd8282611bb8565b808273ffffffffffffffffffffffffffffffffffffffff163373ffffffffffffffffffffffffffffffffffffffff167f8c5be1e5ebec7d5bd14f71427d1e84f3dd0314c0f7b2291e5b200ac8c7c3b92560405160405180910390a45050565b60008060009054906101000a900473ffffffffffffffffffffffffffffffffffffffff1673ffffffffffffffffffffffffffffffffffffffff163373ffffffffffffffffffffffffffffffffffffffff1614610e8757600080fd5b600a60075410610e9657600080fd5b600760008154809291906001019190505550610eef6000806000853360326040518060400160405280600781526020017f7065746e616d6500000000000000000000000000000000000000000000000000815250611c0e565b9050919050565b6000600180549050905090565b610f0f33848484611ec5565b610f1857600080fd5b610f23828483611f80565b505050565b816000610f348261213c565b90506014811115610f90576040517f08c379a00000000000000000000000000000000000000000000000000000000081526004018080602001828103825260348152602001806127a06034913960400191505060405180910390fd5b6003811015610fea576040517f08c379a000000000000000000000000000000000000000000000000000000000815260040180806020018281038252603a815260200180612766603a913960400191505060405180910390fd5b3373ffffffffffffffffffffffffffffffffffffffff1661100a8461130a565b73ffffffffffffffffffffffffffffffffffffffff1614611076576040517f08c379a00000000000000000000000000000000000000000000000000000000081526004018080602001828103825260228152602001806127446022913960400191505060405180910390fd5b836001848154811061108457fe5b906000526020600020906003020160020190805190602001906110a8929190612572565b5050505050565b600460205281600052604060002081815481106110c857fe5b90600052602060002001600091509150505481565b6110f883838360405180602001604052806000815250612147565b505050565b60008060008060008060606001888154811061111557fe5b9060005260206000209060030201600001546001898154811061113457fe5b906000526020600020906003020160010160009054906101000a900467ffffffffffffffff1660018a8154811061116757fe5b906000526020600020906003020160010160089054906101000a900463ffffffff1660018b8154811061119657fe5b9060005260206000209060030201600101600c9054906101000a900463ffffffff1660018c815481106111c557fe5b906000526020600020906003020160010160109054906101000a900461ffff1660018d815481106111f257fe5b906000526020600020906003020160010160129054906101000a900460ff1660018e8154811061121e57fe5b90600052602060002090600302016002018567ffffffffffffffff1695508463ffffffff1694508363ffffffff1693508261ffff169250808054600181600116156101000203166002900480601f0160208091040260200160405190810160405280929190818152602001828054600181600116156101000203166002900480156112ea5780601f106112bf576101008083540402835291602001916112ea565b820191906000526020600020905b8154815290600101906020018083116112cd57829003601f168201915b505050505090509650965096509650965096509650919395979092949650565b60006002600083815260200190815260200160002060009054906101000a900473ffffffffffffffffffffffffffffffffffffffff169050919050565b6000806001848154811061135757fe5b9060005260206000209060030201600001549050826001858154811061137957fe5b906000526020600020906003020160000181905550836000809054906101000a900473ffffffffffffffffffffffffffffffffffffffff1673ffffffffffffffffffffffffffffffffffffffff167f8ce6d831249bd8c2370ecf0585a0bb82151eba420ea29420da400c3d1ccbd8228584604051808381526020018281526020019250505060405180910390a35092915050565b606080600360008473ffffffffffffffffffffffffffffffffffffffff1673ffffffffffffffffffffffffffffffffffffffff1681526020019081526020016000205460405190808252806020026020018201604052801561147e5781602001602082028038833980820191505090505b509050600080905060008090505b60018054905081101561152f578473ffffffffffffffffffffffffffffffffffffffff166002600083815260200190815260200160002060009054906101000a900473ffffffffffffffffffffffffffffffffffffffff1673ffffffffffffffffffffffffffffffffffffffff161415611522578083838151811061150d57fe5b60200260200101818152505081806001019250505b808060010191505061148c565b508192505050919050565b6000600360008373ffffffffffffffffffffffffffffffffffffffff1673ffffffffffffffffffffffffffffffffffffffff168152602001908152602001600020549050919050565b600a81565b6000809054906101000a900473ffffffffffffffffffffffffffffffffffffffff1681565b6040518060400160405280600281526020017f4e4300000000000000000000000000000000000000000000000000000000000081525081565b8173ffffffffffffffffffffffffffffffffffffffff163373ffffffffffffffffffffffffffffffffffffffff16141561161f57600080fd5b611629828261216d565b8173ffffffffffffffffffffffffffffffffffffffff163373ffffffffffffffffffffffffffffffffffffffff167f17307eab39ab6107e8899845ad3d59bd9653f200f220920489ca2b5937696c3183604051808215151515815260200191505060405180910390a35050565b6000809054906101000a900473ffffffffffffffffffffffffffffffffffffffff1673ffffffffffffffffffffffffffffffffffffffff163373ffffffffffffffffffffffffffffffffffffffff16146116ef57600080fd5b806000806101000a81548173ffffffffffffffffffffffffffffffffffffffff021916908373ffffffffffffffffffffffffffffffffffffffff16021790555050565b600073ffffffffffffffffffffffffffffffffffffffff168273ffffffffffffffffffffffffffffffffffffffff16141561176c57600080fd5b3073ffffffffffffffffffffffffffffffffffffffff168273ffffffffffffffffffffffffffffffffffffffff1614156117a557600080fd5b6117af3382611b4c565b6117b857600080fd5b6117c3338383611f80565b5050565b60026020528060005260406000206000915054906101000a900473ffffffffffffffffffffffffffffffffffffffff1681565b61180633868686611ec5565b61180f57600080fd5b61185f85858585858080601f016020809104026020016040519081016040528093929190818152602001838380828437600081840152601f19601f82011690508083019250505050505050612147565b5050505050565b60056020528060005260406000206000915054906101000a900473ffffffffffffffffffffffffffffffffffffffff1681565b60006118a53384611b4c565b611917576040517f08c379a000000000000000000000000000000000000000000000000000000000815260040180806020018281038252601e8152602001807f546865207573657220646f65736e2774206f776e2074686520746f6b656e000081525060200191505060405180910390fd5b6119213383611b4c565b611993576040517f08c379a000000000000000000000000000000000000000000000000000000000815260040180806020018281038252601e8152602001807f546865207573657220646f65736e2774206f776e2074686520746f6b656e000081525060200191505060405180910390fd5b82821415611a09576040517f08c379a00000000000000000000000000000000000000000000000000000000081526004018080602001828103825260198152602001807f436174204944732063616e2774206265207468652073616d650000000000000081525060200191505060405180910390fd5b600080611a15856110fd565b505094505050509150600080611a2a866110fd565b5050945050505091506000611a3f8584612205565b9050600080905082851015611a5957600183019050611a60565b6001850190505b611aa5888a83853360326040518060400160405280600781526020017f7065746e616d6500000000000000000000000000000000000000000000000000815250611c0e565b5050505050505092915050565b6000600660008473ffffffffffffffffffffffffffffffffffffffff1673ffffffffffffffffffffffffffffffffffffffff16815260200190815260200160002060008373ffffffffffffffffffffffffffffffffffffffff1673ffffffffffffffffffffffffffffffffffffffff16815260200190815260200160002060009054906101000a900460ff16905092915050565b60075481565b60008273ffffffffffffffffffffffffffffffffffffffff166002600084815260200190815260200160002060009054906101000a900473ffffffffffffffffffffffffffffffffffffffff1673ffffffffffffffffffffffffffffffffffffffff1614905092915050565b816005600083815260200190815260200160002060006101000a81548173ffffffffffffffffffffffffffffffffffffffff021916908373ffffffffffffffffffffffffffffffffffffffff1602179055505050565b6000611c186125f2565b6040518060e001604052808781526020014267ffffffffffffffff1681526020018a63ffffffff1681526020018963ffffffff1681526020018861ffff1681526020018560ff1681526020018481525090506000871415611c8b5760328160a0019060ff16908160ff1681525050611c9f565b60148160a0019060ff16908160ff16815250505b600060018083908060018154018082558091505090600182039060005260206000209060030201600090919290919091506000820151816000015560208201518160010160006101000a81548167ffffffffffffffff021916908367ffffffffffffffff16021790555060408201518160010160086101000a81548163ffffffff021916908363ffffffff160217905550606082015181600101600c6101000a81548163ffffffff021916908363ffffffff16021790555060808201518160010160106101000a81548161ffff021916908361ffff16021790555060a08201518160010160126101000a81548160ff021916908360ff16021790555060c0820151816002019080519060200190611db792919061264c565b505050039050600460003373ffffffffffffffffffffffffffffffffffffffff1673ffffffffffffffffffffffffffffffffffffffff1681526020019081526020016000208190806001815401808255809150509060018203906000526020600020016000909192909190915055507f0a5311bd2a6608f08a180df2ee7c5946819a649b204b554bb8e39825b2c50ad586828c8c8b604051808673ffffffffffffffffffffffffffffffffffffffff1673ffffffffffffffffffffffffffffffffffffffff1681526020018581526020018481526020018381526020018281526020019550505050505060405180910390a1611eb560008783611f80565b8092505050979650505050505050565b60006001805490508210611ed857600080fd5b600073ffffffffffffffffffffffffffffffffffffffff168373ffffffffffffffffffffffffffffffffffffffff161415611f1257600080fd5b611f1c8483611b4c565b611f2557600080fd5b8373ffffffffffffffffffffffffffffffffffffffff168573ffffffffffffffffffffffffffffffffffffffff161480611f655750611f648583612309565b5b80611f765750611f758486611ab2565b5b9050949350505050565b600360008373ffffffffffffffffffffffffffffffffffffffff1673ffffffffffffffffffffffffffffffffffffffff16815260200190815260200160002060008154809291906001019190505550816002600083815260200190815260200160002060006101000a81548173ffffffffffffffffffffffffffffffffffffffff021916908373ffffffffffffffffffffffffffffffffffffffff160217905550600073ffffffffffffffffffffffffffffffffffffffff168373ffffffffffffffffffffffffffffffffffffffff16146120dc57600360008473ffffffffffffffffffffffffffffffffffffffff1673ffffffffffffffffffffffffffffffffffffffff16815260200190815260200160002060008154809291906001900391905055506005600082815260200190815260200160002060006101000a81549073ffffffffffffffffffffffffffffffffffffffff02191690555b808273ffffffffffffffffffffffffffffffffffffffff168473ffffffffffffffffffffffffffffffffffffffff167fddf252ad1be2c89b69c2b068fc378daa952ba7f163c4a11628f55a4df523b3ef60405160405180910390a4505050565b600081519050919050565b612152848484611f80565b61215e84848484612375565b61216757600080fd5b50505050565b80600660003373ffffffffffffffffffffffffffffffffffffffff1673ffffffffffffffffffffffffffffffffffffffff16815260200190815260200160002060008473ffffffffffffffffffffffffffffffffffffffff1673ffffffffffffffffffffffffffffffffffffffff16815260200190815260200160002060006101000a81548160ff0219169083151502179055505050565b600061220f6126cc565b600060019050600060ff428161222157fe5b069050600060079050600192505b608083116122bb576000838360ff16161461226c576064868161224e57fe5b0660ff1684826008811061225e57fe5b602002018181525050612290565b6064878161227657fe5b0660ff1684826008811061228657fe5b6020020181815250505b6064868161229a57fe5b049550606487816122a757fe5b04965060018103905060028302925061222f565b60008093505b60088410156122fb578484600881106122d657fe5b602002015181019050600784146122ee576064810290505b83806001019450506122c1565b809550505050505092915050565b60008273ffffffffffffffffffffffffffffffffffffffff166005600084815260200190815260200160002060009054906101000a900473ffffffffffffffffffffffffffffffffffffffff1673ffffffffffffffffffffffffffffffffffffffff1614905092915050565b600061238084612559565b61238d5760019050612551565b60008473ffffffffffffffffffffffffffffffffffffffff1663150b7a02338887876040518563ffffffff1660e01b8152600401808573ffffffffffffffffffffffffffffffffffffffff1673ffffffffffffffffffffffffffffffffffffffff1681526020018473ffffffffffffffffffffffffffffffffffffffff1673ffffffffffffffffffffffffffffffffffffffff16815260200183815260200180602001828103825283818151815260200191508051906020019080838360005b8381101561246857808201518184015260208101905061244d565b50505050905090810190601f1680156124955780820380516001836020036101000a031916815260200191505b5095505050505050602060405180830381600087803b1580156124b757600080fd5b505af11580156124cb573d6000803e3d6000fd5b505050506040513d60208110156124e157600080fd5b810190808051906020019092919050505090506040518080612715602f9139602f01905060405180910390207bffffffffffffffffffffffffffffffffffffffffffffffffffffffff1916817bffffffffffffffffffffffffffffffffffffffffffffffffffffffff1916149150505b949350505050565b600080823b905060008163ffffffff1611915050919050565b828054600181600116156101000203166002900490600052602060002090601f016020900481019282601f106125b357805160ff19168380011785556125e1565b828001600101855582156125e1579182015b828111156125e05782518255916020019190600101906125c5565b5b5090506125ee91906126ef565b5090565b6040518060e0016040528060008152602001600067ffffffffffffffff168152602001600063ffffffff168152602001600063ffffffff168152602001600061ffff168152602001600060ff168152602001606081525090565b828054600181600116156101000203166002900490600052602060002090601f016020900481019282601f1061268d57805160ff19168380011785556126bb565b828001600101855582156126bb579182015b828111156126ba57825182559160200191906001019061269f565b5b5090506126c891906126ef565b5090565b604051806101000160405280600890602082028038833980820191505090505090565b61271191905b8082111561270d5760008160009055506001016126f5565b5090565b9056fe6f6e455243373231526563656976656428616464726573732c616464726573732c75696e743235362c627974657329796f757220617265206e6f7420746865206f776e6572206f662074686174204361745065746e616d6520746f6f2073686f72742c20706c65617365206173737572652061206d696e696d756d206f66203320636861726163746572735065746e616d6520746f6f206c6f6e672c206c656e677468206973206c696d6974656420746f2032302063686172616374657273a265627a7a7231582020a788c4d3bd9b7cac8759814b96f01d8d8535e430c2f6b139fce880ed69f89b64736f6c634300050c0032",
  "source": "// SPDX-License-Identifier: SPDX-License\r\npragma solidity 0.5.12;\r\n\r\nimport \"./IERC721.sol\";\r\nimport \"./Ownable.sol\";\r\nimport \"./IERC721Receiver.sol\";\r\n\r\ncontract Catscontract is IERC721, Ownable {\r\n\r\n    uint256 public constant supplyLimitGen0 = 10;\r\n    string public constant name = \"Neoncats\";\r\n    string public constant symbol = \"NC\";\r\n    \r\n    bytes4 internal constant MAGIC_ERC721_RECEIVED = bytes4(keccak256(\"onERC721Received(address,address,uint256,bytes)\")); \r\n\r\n    bytes4 private constant _INTERFACE_ID_ERC721 = 0x80ac58cd;\r\n\r\n    bytes4 private constant _INTERFACE_ID_ERC165 = 0x01ffc9a7;\r\n\r\n    struct Neoncat {\r\n        uint256 genes;\r\n        uint64 birthTime;\r\n        uint32 mumId;\r\n        uint32 dadId;\r\n        uint16 generation;\r\n        uint8 energy; //pending to update formulas returning struct\r\n        string petName; //pending to update formulas returning struct\r\n    }\r\n\r\n    Neoncat[] neoncats;\r\n\r\n    mapping(uint256 => address) public catIndexToOwner;\r\n    mapping(address => uint256) ownershipTokenCount;\r\n    mapping(address => uint256[]) public ownerCats;\r\n    \r\n    mapping(uint256 => address) public neonCatIndexToApproved;\r\n    mapping(address => mapping (address => bool)) private _operatorApprovals;\r\n    \r\n    event Birth(address owner, uint256 newCatId, uint256 mumId, uint256 dadId, uint256 genes);\r\n    event Transfer(address indexed from, address indexed to, uint256 indexed tokenId);\r\n    event Approval(address indexed owner, address indexed approved, uint256 indexed tokenId);\r\n    event ApprovalForAll(address indexed owner, address indexed operator, bool approved);\r\n    event UpdateEvent(address indexed owner, uint256 indexed tokenId, uint256 _genesUpdated, uint256 oldGenes);\r\n\r\n    uint256 public gen0Counter;\r\n\r\n    function breed(uint256 _dadId, uint256 _mumId) public returns (uint256){\r\n        require(_owns(msg.sender, _dadId), \"The user doesn't own the token\"); // check ownership\r\n        require(_owns(msg.sender, _mumId), \"The user doesn't own the token\"); // check ownership\r\n        require ((_mumId != _dadId), \"Cat IDs can't be the same\"); // assure two different cats are chosen for breeding\r\n        // you got the DNA\r\n        // get DNA and generation from mum and dad\r\n        ( uint256 dadDna,,,,uint256 dadGen,, ) = getCat(_dadId);\r\n        ( uint256 mumDna,,,,uint256 mumGen,, ) = getCat(_mumId);\r\n        \r\n        uint256 newDna = _mixDna(dadDna, mumDna);\r\n\r\n        // Figure out the generation: Add generation numbers, i.e. Gen0 + Gen1 = Gen1, Gen1 + Gen1 = Gen2, Gen1 + Gen2 = Gen3\r\n        uint256 kidGen = 0;\r\n        if (dadGen < mumGen) {\r\n            kidGen = mumGen + 1;\r\n        } else {\r\n            kidGen = dadGen + 1;\r\n        }\r\n            _createNeonCat( _mumId, _dadId, kidGen, newDna, msg.sender,50,'petname');\r\n\r\n    }\r\n    \r\n    // let user create a petName for his (check) cat assuring min4/max20 character length\r\n    function catName(string memory _petName, uint256 _tokenId) public catNameValidator(_petName) {\r\n        require(ownerOf(_tokenId) == msg.sender, \"your are not the owner of that Cat\");\r\n    // get user input (string) from front-end\r\n    // run checks: _utf8StringLength(), petNameValidator() (DONE)\r\n    // commit/record petName to cat struct (DONE)\r\n        neoncats[_tokenId].petName = _petName;\r\n\r\n    }\r\n    \r\n    function _mixDna(uint256 _dadDna, uint256 _mumDna) internal returns (uint256) {\r\n        \r\n        uint256[8] memory geneArray;\r\n        uint256 i = 1;\r\n        uint8 random = uint8( now % 255 ); // yields binary between 00000000-11111111\r\n        uint256 index = 7;\r\n        \r\n        for (i = 1; i <= 128; i=i*2)   {    // 1, 2, 4, 8, 16, 32, 64, 128\r\n            if(random & i != 0){\r\n                geneArray[index] = uint8( _mumDna % 100 );\r\n            }\r\n            else{\r\n                geneArray[index] = uint8( _dadDna % 100 );\r\n            }\r\n            _mumDna = _mumDna / 100;\r\n            _dadDna = _dadDna / 100;\r\n\r\n            index = index -1;\r\n        }\r\n        uint256 newGene;\r\n        \r\n        for (i = 0; i < 8; i++){ \r\n            newGene = newGene + geneArray[i];\r\n\r\n            if(i != 7){\r\n                newGene = newGene * 100;\r\n            }\r\n        }\r\n        \r\n        return newGene;\r\n    }    \r\n            \r\n\r\n    function supportsInterface(bytes4 _interfaceId) external view returns (bool){\r\n        return ( _interfaceId == _INTERFACE_ID_ERC721 || _interfaceId == _INTERFACE_ID_ERC165 );\r\n        }\r\n\r\n    // set mumID, dadID and generation to 0, _genes from input and owner = 0address / msg.sender\r\n    // create var to limit 0 generation to max amount 10, add require and increase counter\r\n    function createCatGen0(uint256 _genes) public onlyOwner returns (uint256){\r\n        require(gen0Counter < supplyLimitGen0);\r\n        // assure no DNA duplicates via a if-condition that stops generation if this condition is not met:  _genes != _existingGenes\r\n        // how to access existing genes? --> Birth event?\r\n\r\n        gen0Counter++;\r\n        // catEnergy = 50;\r\n\r\n        return _createNeonCat(0, 0, 0, _genes, msg.sender,50,'petname');\r\n     }\r\n\r\n    function updateCat(uint256 _tokenId, uint256 _genesUpdated) public returns (uint256){\r\n         // assure we get the old DNA for UpdateEvent before changing the attributes\r\n         uint256 oldGenes = neoncats[_tokenId].genes;\r\n\r\n        // assuming I get the updated DNA from the front end once the user changed it, this change needs to \r\n        // enter the blockchain, via a .send method from the front-end:\r\n        /* contract.methods.updateCat(catId, _genesUpdated).send({}, function(error, txHash){\r\n        if(error)\r\n            console.log(error);\r\n        else {\r\n            console.log(txHash); */\r\n        // the \"genes\" part of the struct of this catId needs to be updated. \r\n        // how can I overwrite the existing genes info? with a push method?\r\n         neoncats[_tokenId].genes = _genesUpdated;\r\n\r\n         // update the catId/object rendering new parts of the dna --> frontEnd / render.js SingleCat\r\n\r\n         emit UpdateEvent(owner, _tokenId, _genesUpdated, oldGenes); \r\n    }\r\n\r\n    function getNeonCatsPerOwner(address _owner) external view returns (uint [] memory){\r\n        uint[] memory result = new uint[](ownershipTokenCount[_owner]);\r\n        uint counter = 0;\r\n        for(uint i = 0; i < neoncats.length; i++){\r\n            if (catIndexToOwner[i] == _owner) {\r\n                result[counter] = i;\r\n                counter++;\r\n            }\r\n        }\r\n        return result;\r\n    }\r\n\r\n\r\n    function getCat(uint256 _tokenId) public view returns(\r\n        uint256 genes, \r\n        uint256 birthTime, \r\n        uint256 mumId, \r\n        uint256 dadId, \r\n        uint256 generation,\r\n        uint8 energy,\r\n        string memory petName\r\n    )\r\n    {        \r\n        return(\r\n            neoncats[_tokenId].genes, \r\n            neoncats[_tokenId].birthTime, \r\n            neoncats[_tokenId].mumId, \r\n            neoncats[_tokenId].dadId, \r\n            neoncats[_tokenId].generation,\r\n            neoncats[_tokenId].energy,\r\n            neoncats[_tokenId].petName\r\n            );\r\n    }\r\n\r\n    // function is private as meant to be executed only from within this contract \r\n    function _createNeonCat(uint256 _mumId, uint256 _dadId, uint256 _generation, uint256 _genes, address _owner, uint8 _energy, string memory _petName\r\n    ) private returns (uint256){\r\n        Neoncat memory _neoncat = Neoncat({\r\n            genes: _genes,\r\n            birthTime: uint64(now),\r\n            mumId: uint32(_mumId),\r\n            dadId: uint32(_dadId),\r\n            generation: uint16(_generation),\r\n            petName: string(_petName),\r\n            energy: uint8(_energy)\r\n        });\r\n\r\n           if (_generation == 0){\r\n                _neoncat.energy = 50;\r\n            } else {\r\n                _neoncat.energy = 20;\r\n            }\r\n\r\n        uint256 newCatId = neoncats.push(_neoncat) -1;\r\n        \r\n        ownerCats[msg.sender].push(newCatId);\r\n\r\n        emit Birth(_owner, newCatId, _mumId, _dadId, _genes);\r\n\r\n        _transfer(address(0), _owner, newCatId);\r\n\r\n        return newCatId;\r\n\r\n    }\r\n\r\n\r\n    function balanceOf(address owner) external view returns (uint256 balance){\r\n        return ownershipTokenCount[owner];\r\n    }\r\n\r\n    function totalSupply() public view returns (uint256) {\r\n        return neoncats.length;\r\n    }\r\n  \r\n    function ownerOf(uint256 _tokenId) public view returns (address){\r\n        return catIndexToOwner[_tokenId];\r\n    }\r\n\r\n    function safeTransferFrom(address _from, address _to, uint256 _tokenId) public {\r\n        _safeTransfer(_from, _to, _tokenId, \"\");\r\n        }\r\n\r\n    function safeTransferFrom(address _from, address _to, uint256 _tokenId, bytes calldata _data) external{\r\n        require( _isApprovedOrOwner(msg.sender, _from, _to, _tokenId) );\r\n        _safeTransfer(_from, _to, _tokenId, _data);\r\n    }\r\n\r\n    function _safeTransfer(address _from, address _to, uint256 _tokenId, bytes memory _data) internal {\r\n        _transfer(_from, _to, _tokenId);\r\n        require( _checkERC721Support(_from, _to, _tokenId, _data) );\r\n    }\r\n\r\n    function _checkERC721Support(address _from, address _to, uint256 _tokenId, bytes memory _data) internal returns (bool) {\r\n        if( !_isContract(_to) ){\r\n            return true;\r\n        }\r\n        //Call onERC721Received in the _to contract\r\n        bytes4 returnData = IERC721Receiver(_to).onERC721Received(msg.sender, _from, _tokenId, _data);\r\n        // Check return value\r\n        return returnData == MAGIC_ERC721_RECEIVED;    \r\n        }\r\n\r\n    function _isContract(address _to) view internal returns (bool) {\r\n        uint32 size;\r\n        assembly {\r\n            size := extcodesize(_to)\r\n        }\r\n        return size > 0;\r\n    }\r\n\r\n    function _isApprovedOrOwner(address _spender, address _from, address _to, uint256 _tokenId) internal returns(bool){\r\n        require(_tokenId < neoncats.length); // token must exist\r\n        require(_to != address(0)); // TO address cant be zero address\r\n        require(_owns(_from, _tokenId)); // From owns the token\r\n        // spender is from OR spender is approved for tokenId OR spender is operator for from\r\n        return(_spender == _from || _approvedFor(_spender, _tokenId) || isApprovedForAll(_from, _spender));\r\n    }\r\n\r\n    function transfer(address _to, uint256 _tokenId) external{\r\n        require(_to != address(0));\r\n        require(_to != address(this));\r\n        require(_owns(msg.sender, _tokenId));\r\n\r\n        _transfer(msg.sender, _to, _tokenId);\r\n    }\r\n\r\n    function _transfer(address _from, address _to, uint256 _tokenId) internal {\r\n        ownershipTokenCount[_to]++;\r\n\r\n        catIndexToOwner[_tokenId] = _to;\r\n\r\n        if (_from != address(0)) {\r\n            ownershipTokenCount[_from]--;\r\n            delete neonCatIndexToApproved[_tokenId];\r\n        }\r\n\r\n        emit Transfer(_from, _to, _tokenId);\r\n    }\r\n\r\n    function _owns(address _claimant, uint256 _tokenId) internal view returns (bool){\r\n        return (catIndexToOwner[_tokenId] == _claimant);\r\n    }\r\n    function isApprovedForAll(address owner, address operator) public view returns (bool){\r\n        return _operatorApprovals[owner][operator];\r\n    }\r\n\r\n    function transferFrom(address _from, address _to, uint256 _tokenId) public {\r\n        require( _isApprovedOrOwner(msg.sender, _from, _to, _tokenId) );\r\n\r\n        _transfer(_to, _from, _tokenId);\r\n    }\r\n        function _approvedFor(address _claimant, uint256 _tokenId) internal view returns (bool) {\r\n            return neonCatIndexToApproved[_tokenId] == _claimant;\r\n        }\r\n   \r\n\r\n\r\n    function approve(address _to, uint256 _tokenId) external {\r\n        require(_owns(msg.sender, _tokenId));\r\n\r\n        _approve(_to, _tokenId);\r\n        emit Approval(msg.sender, _to, _tokenId);\r\n        }\r\n    \r\n        function _approve(address approved, uint256 _tokenId) internal {\r\n            neonCatIndexToApproved[_tokenId] = approved;\r\n        }\r\n        \r\n    function getApproved(uint256 _tokenId) public view returns (address) {\r\n        require(_tokenId < neoncats.length); // token must exist\r\n        \r\n        return neonCatIndexToApproved[_tokenId];\r\n    }\r\n\r\n    function setApprovalForAll(address operator, bool approved) external {\r\n        require(msg.sender != operator);\r\n\r\n        _setApprovalForAll(operator, approved);\r\n        emit ApprovalForAll(msg.sender, operator, approved);\r\n    }\r\n        function _setApprovalForAll(address operator, bool approved) internal {\r\n            _operatorApprovals[msg.sender][operator] = approved;\r\n            \r\n        }\r\n    \r\n}\r\n",
  "sourcePath": "C:\\wamp64\\www\\andreas\\neon-kitties\\contracts\\Catcontract.sol",
  "compiler": {
    "name": "solc",
    "version": "0.5.12+commit.7709ece9.Emscripten.clang"
  },
  "schemaVersion": "3.2.5",
  "updatedAt": "2021-07-02T14:40:27.267Z",
  "networkType": "ethereum",
  "devdoc": {
    "methods": {}
  },
  "userdoc": {
    "methods": {}
  }
}