{
  "contractName": "NeonCatMarketplace",
  "abi": [
    {
      "inputs": [
        {
          "internalType": "address",
          "name": "_catContractAddress",
          "type": "address"
        }
      ],
      "payable": false,
      "stateMutability": "nonpayable",
      "type": "constructor"
    },
    {
      "anonymous": false,
      "inputs": [
        {
          "indexed": false,
          "internalType": "string",
          "name": "TxType",
          "type": "string"
        },
        {
          "indexed": false,
          "internalType": "address",
          "name": "owner",
          "type": "address"
        },
        {
          "indexed": false,
          "internalType": "uint256",
          "name": "tokenId",
          "type": "uint256"
        }
      ],
      "name": "MarketTransaction",
      "type": "event"
    },
    {
      "constant": false,
      "inputs": [
        {
          "internalType": "address",
          "name": "newOwner",
          "type": "address"
        }
      ],
      "name": "changeOwner",
      "outputs": [],
      "payable": false,
      "stateMutability": "nonpayable",
      "type": "function"
    },
    {
      "constant": true,
      "inputs": [
        {
          "internalType": "uint256",
          "name": "",
          "type": "uint256"
        }
      ],
      "name": "offers",
      "outputs": [
        {
          "internalType": "address payable",
          "name": "seller",
          "type": "address"
        },
        {
          "internalType": "uint256",
          "name": "price",
          "type": "uint256"
        },
        {
          "internalType": "uint256",
          "name": "index",
          "type": "uint256"
        },
        {
          "internalType": "uint256",
          "name": "tokenId",
          "type": "uint256"
        },
        {
          "internalType": "bool",
          "name": "active",
          "type": "bool"
        }
      ],
      "payable": false,
      "stateMutability": "view",
      "type": "function"
    },
    {
      "constant": true,
      "inputs": [],
      "name": "owner",
      "outputs": [
        {
          "internalType": "address",
          "name": "",
          "type": "address"
        }
      ],
      "payable": false,
      "stateMutability": "view",
      "type": "function"
    },
    {
      "constant": false,
      "inputs": [
        {
          "internalType": "address",
          "name": "_catContractAddress",
          "type": "address"
        }
      ],
      "name": "setNeonCatContract",
      "outputs": [],
      "payable": false,
      "stateMutability": "nonpayable",
      "type": "function"
    },
    {
      "constant": true,
      "inputs": [
        {
          "internalType": "uint256",
          "name": "_tokenId",
          "type": "uint256"
        }
      ],
      "name": "getOffer",
      "outputs": [
        {
          "internalType": "address",
          "name": "seller",
          "type": "address"
        },
        {
          "internalType": "uint256",
          "name": "price",
          "type": "uint256"
        },
        {
          "internalType": "uint256",
          "name": "index",
          "type": "uint256"
        },
        {
          "internalType": "uint256",
          "name": "tokenId",
          "type": "uint256"
        },
        {
          "internalType": "bool",
          "name": "active",
          "type": "bool"
        }
      ],
      "payable": false,
      "stateMutability": "view",
      "type": "function"
    },
    {
      "constant": true,
      "inputs": [],
      "name": "getAllTokenOnSale",
      "outputs": [
        {
          "internalType": "uint256[]",
          "name": "listOfOffers",
          "type": "uint256[]"
        }
      ],
      "payable": false,
      "stateMutability": "view",
      "type": "function"
    },
    {
      "constant": false,
      "inputs": [
        {
          "internalType": "uint256",
          "name": "_price",
          "type": "uint256"
        },
        {
          "internalType": "uint256",
          "name": "_tokenId",
          "type": "uint256"
        }
      ],
      "name": "setOffer",
      "outputs": [],
      "payable": false,
      "stateMutability": "nonpayable",
      "type": "function"
    },
    {
      "constant": false,
      "inputs": [
        {
          "internalType": "uint256",
          "name": "_tokenId",
          "type": "uint256"
        }
      ],
      "name": "removeOffer",
      "outputs": [],
      "payable": false,
      "stateMutability": "nonpayable",
      "type": "function"
    },
    {
      "constant": false,
      "inputs": [
        {
          "internalType": "uint256",
          "name": "_tokenId",
          "type": "uint256"
        }
      ],
      "name": "buyCat",
      "outputs": [],
      "payable": true,
      "stateMutability": "payable",
      "type": "function"
    }
  ],
  "bytecode": "0x608060405234801561001057600080fd5b506040516116103803806116108339818101604052602081101561003357600080fd5b8101908080519060200190929190505050336000806101000a81548173ffffffffffffffffffffffffffffffffffffffff021916908373ffffffffffffffffffffffffffffffffffffffff1602179055506100938161009960201b60201c565b50610136565b6000809054906101000a900473ffffffffffffffffffffffffffffffffffffffff1673ffffffffffffffffffffffffffffffffffffffff163373ffffffffffffffffffffffffffffffffffffffff16146100f257600080fd5b80600160006101000a81548173ffffffffffffffffffffffffffffffffffffffff021916908373ffffffffffffffffffffffffffffffffffffffff16021790555050565b6114cb806101456000396000f3fe6080604052600436106100865760003560e01c80638da5cb5b116100595780638da5cb5b1461027e578063941b055b146102d557806395a0f9c71461031a578063a6f9dae114610355578063d72503ba146103a657610086565b8063314835611461008b5780634579268a146100dc57806349b3709f146101775780638a72ea6a146101e3575b600080fd5b34801561009757600080fd5b506100da600480360360208110156100ae57600080fd5b81019080803573ffffffffffffffffffffffffffffffffffffffff1690602001909291905050506103d4565b005b3480156100e857600080fd5b50610115600480360360208110156100ff57600080fd5b8101908080359060200190929190505050610471565b604051808673ffffffffffffffffffffffffffffffffffffffff1673ffffffffffffffffffffffffffffffffffffffff168152602001858152602001848152602001838152602001821515151581526020019550505050505060405180910390f35b34801561018357600080fd5b5061018c6104ec565b6040518080602001828103825283818151815260200191508051906020019060200280838360005b838110156101cf5780820151818401526020810190506101b4565b505050509050019250505060405180910390f35b3480156101ef57600080fd5b5061021c6004803603602081101561020657600080fd5b8101908080359060200190929190505050610603565b604051808673ffffffffffffffffffffffffffffffffffffffff1673ffffffffffffffffffffffffffffffffffffffff168152602001858152602001848152602001838152602001821515151581526020019550505050505060405180910390f35b34801561028a57600080fd5b50610293610673565b604051808273ffffffffffffffffffffffffffffffffffffffff1673ffffffffffffffffffffffffffffffffffffffff16815260200191505060405180910390f35b3480156102e157600080fd5b50610318600480360360408110156102f857600080fd5b810190808035906020019092919080359060200190929190505050610698565b005b34801561032657600080fd5b506103536004803603602081101561033d57600080fd5b8101908080359060200190929190505050610b41565b005b34801561036157600080fd5b506103a46004803603602081101561037857600080fd5b81019080803573ffffffffffffffffffffffffffffffffffffffff169060200190929190505050610dde565b005b6103d2600480360360208110156103bc57600080fd5b8101908080359060200190929190505050610e7a565b005b6000809054906101000a900473ffffffffffffffffffffffffffffffffffffffff1673ffffffffffffffffffffffffffffffffffffffff163373ffffffffffffffffffffffffffffffffffffffff161461042d57600080fd5b80600160006101000a81548173ffffffffffffffffffffffffffffffffffffffff021916908373ffffffffffffffffffffffffffffffffffffffff16021790555050565b6000806000806000806003600088815260200190815260200160002090508060000160009054906101000a900473ffffffffffffffffffffffffffffffffffffffff168160010154826002015483600301548460040160009054906101000a900460ff16849450955095509550955095505091939590929450565b606060006002805490509050600081141561053a5760006040519080825280602002602001820160405280156105315781602001602082028038833980820191505090505b50915050610600565b60608160405190808252806020026020018201604052801561056b5781602001602082028038833980820191505090505b50905060008090505b828110156105f957600115156002828154811061058d57fe5b906000526020600020906005020160040160009054906101000a900460ff16151514156105ec57600281815481106105c157fe5b9060005260206000209060050201600301548282815181106105df57fe5b6020026020010181815250505b8080600101915050610574565b8193505050505b90565b6002818154811061061057fe5b90600052602060002090600502016000915090508060000160009054906101000a900473ffffffffffffffffffffffffffffffffffffffff16908060010154908060020154908060030154908060040160009054906101000a900460ff16905085565b6000809054906101000a900473ffffffffffffffffffffffffffffffffffffffff1681565b6106a233826112cc565b6106f7576040517f08c379a000000000000000000000000000000000000000000000000000000000815260040180806020018281038252602281526020018061141e6022913960400191505060405180910390fd5b600015156003600083815260200190815260200160002060040160009054906101000a900460ff16151514610794576040517f08c379a000000000000000000000000000000000000000000000000000000000815260040180806020018281038252601b8152602001807f546869732063617420697320616c7265616479206f6e2073616c65000000000081525060200191505060405180910390fd5b600160009054906101000a900473ffffffffffffffffffffffffffffffffffffffff1673ffffffffffffffffffffffffffffffffffffffff1663e985e9c533306040518363ffffffff1660e01b8152600401808373ffffffffffffffffffffffffffffffffffffffff1673ffffffffffffffffffffffffffffffffffffffff1681526020018273ffffffffffffffffffffffffffffffffffffffff1673ffffffffffffffffffffffffffffffffffffffff1681526020019250505060206040518083038186803b15801561086757600080fd5b505afa15801561087b573d6000803e3d6000fd5b505050506040513d602081101561089157600080fd5b81019080805190602001909291905050506108f7576040517f08c379a00000000000000000000000000000000000000000000000000000000081526004018080602001828103825260318152602001806114406031913960400191505060405180910390fd5b6108ff6113b2565b6040518060a001604052803373ffffffffffffffffffffffffffffffffffffffff1681526020018481526020016002805490508152602001838152602001600115158152509050806003600084815260200190815260200160002060008201518160000160006101000a81548173ffffffffffffffffffffffffffffffffffffffff021916908373ffffffffffffffffffffffffffffffffffffffff16021790555060208201518160010155604082015181600201556060820151816003015560808201518160040160006101000a81548160ff0219169083151502179055509050506002819080600181540180825580915050906001820390600052602060002090600502016000909192909190915060008201518160000160006101000a81548173ffffffffffffffffffffffffffffffffffffffff021916908373ffffffffffffffffffffffffffffffffffffffff16021790555060208201518160010155604082015181600201556060820151816003015560808201518160040160006101000a81548160ff0219169083151502179055505050507fd99e4fad9ad6313b1feb588fa8e605e3a9873172f2024330c35dd2b4041a4386338360405180806020018473ffffffffffffffffffffffffffffffffffffffff1673ffffffffffffffffffffffffffffffffffffffff1681526020018381526020018281038252600d8152602001807f4f66666572206372656174656400000000000000000000000000000000000000815250602001935050505060405180910390a1505050565b610b496113b2565b600360008381526020019081526020016000206040518060a00160405290816000820160009054906101000a900473ffffffffffffffffffffffffffffffffffffffff1673ffffffffffffffffffffffffffffffffffffffff1673ffffffffffffffffffffffffffffffffffffffff1681526020016001820154815260200160028201548152602001600382015481526020016004820160009054906101000a900460ff16151515158152505090503373ffffffffffffffffffffffffffffffffffffffff16816000015173ffffffffffffffffffffffffffffffffffffffff1614610c80576040517f08c379a00000000000000000000000000000000000000000000000000000000081526004018080602001828103825260248152602001806113fa6024913960400191505060405180910390fd5b60036000838152602001908152602001600020600080820160006101000a81549073ffffffffffffffffffffffffffffffffffffffff02191690556001820160009055600282016000905560038201600090556004820160006101000a81549060ff0219169055505060006002600360008581526020019081526020016000206002015481548110610d0e57fe5b906000526020600020906005020160040160006101000a81548160ff0219169083151502179055507fd99e4fad9ad6313b1feb588fa8e605e3a9873172f2024330c35dd2b4041a4386338360405180806020018473ffffffffffffffffffffffffffffffffffffffff1673ffffffffffffffffffffffffffffffffffffffff1681526020018381526020018281038252600c8152602001807f52656d6f7665206f666665720000000000000000000000000000000000000000815250602001935050505060405180910390a15050565b6000809054906101000a900473ffffffffffffffffffffffffffffffffffffffff1673ffffffffffffffffffffffffffffffffffffffff163373ffffffffffffffffffffffffffffffffffffffff1614610e3757600080fd5b806000806101000a81548173ffffffffffffffffffffffffffffffffffffffff021916908373ffffffffffffffffffffffffffffffffffffffff16021790555050565b610e826113b2565b600360008381526020019081526020016000206040518060a00160405290816000820160009054906101000a900473ffffffffffffffffffffffffffffffffffffffff1673ffffffffffffffffffffffffffffffffffffffff1673ffffffffffffffffffffffffffffffffffffffff1681526020016001820154815260200160028201548152602001600382015481526020016004820160009054906101000a900460ff161515151581525050905080602001513414610faa576040517f08c379a00000000000000000000000000000000000000000000000000000000081526004018080602001828103825260168152602001807f54686520707269636520697320696e636f72726563740000000000000000000081525060200191505060405180910390fd5b600115156003600084815260200190815260200160002060040160009054906101000a900460ff1615151461102a576040517f08c379a00000000000000000000000000000000000000000000000000000000081526004018080602001828103825260268152602001806114716026913960400191505060405180910390fd5b60036000838152602001908152602001600020600080820160006101000a81549073ffffffffffffffffffffffffffffffffffffffff02191690556001820160009055600282016000905560038201600090556004820160006101000a81549060ff02191690555050600060028260400151815481106110a657fe5b906000526020600020906005020160040160006101000a81548160ff02191690831515021790555060008160200151111561112b57806000015173ffffffffffffffffffffffffffffffffffffffff166108fc82602001519081150290604051600060405180830381858888f19350505050158015611129573d6000803e3d6000fd5b505b600160009054906101000a900473ffffffffffffffffffffffffffffffffffffffff1673ffffffffffffffffffffffffffffffffffffffff166323b872dd826000015133856040518463ffffffff1660e01b8152600401808473ffffffffffffffffffffffffffffffffffffffff1673ffffffffffffffffffffffffffffffffffffffff1681526020018373ffffffffffffffffffffffffffffffffffffffff1673ffffffffffffffffffffffffffffffffffffffff1681526020018281526020019350505050600060405180830381600087803b15801561120c57600080fd5b505af1158015611220573d6000803e3d6000fd5b505050507fd99e4fad9ad6313b1feb588fa8e605e3a9873172f2024330c35dd2b4041a4386338360405180806020018473ffffffffffffffffffffffffffffffffffffffff1673ffffffffffffffffffffffffffffffffffffffff168152602001838152602001828103825260038152602001807f4275790000000000000000000000000000000000000000000000000000000000815250602001935050505060405180910390a15050565b60008273ffffffffffffffffffffffffffffffffffffffff16600160009054906101000a900473ffffffffffffffffffffffffffffffffffffffff1673ffffffffffffffffffffffffffffffffffffffff16636352211e846040518263ffffffff1660e01b81526004018082815260200191505060206040518083038186803b15801561135857600080fd5b505afa15801561136c573d6000803e3d6000fd5b505050506040513d602081101561138257600080fd5b810190808051906020019092919050505073ffffffffffffffffffffffffffffffffffffffff1614905092915050565b6040518060a00160405280600073ffffffffffffffffffffffffffffffffffffffff168152602001600081526020016000815260200160008152602001600015158152509056fe596f7520617265206e6f74207468652073656c6c6572206f662074686174206b69747479796f757220617265206e6f7420746865206f776e6572206f66207468617420436174436f6e7472616374206e6565647320746f20626520617070726f76656420746f207472616e73666572207468652043617450726573656e746c79206e6f20616374697665206f6666657220666f72207468697320436174a265627a7a723158208074f05f3036e051e694673b1b03a213b40bdb5ae4682ba1f5b565fe5e7bed9b64736f6c634300050c0032",
  "source": "pragma solidity 0.5.12;\n\nimport \"./Catcontract.sol\";\nimport \"./Ownable.sol\";\nimport \"./INeonCatMarketplace.sol\";\n\ncontract NeonCatMarketplace is Ownable, INeonCatMarketplace {\n    Catscontract private _catContract;\n\n    struct Offer {\n        address payable seller;\n        uint256 price;\n        uint256 index;\n        uint256 tokenId;\n        bool active;\n    }\n\n        Offer[] public offers;\n\n        mapping(uint256 => Offer) tokenIdToOffer;\n\n\n    event MarketTransaction(string TxType, address owner, uint256 tokenId);\n\n    constructor(address _catContractAddress) public {\n        setNeonCatContract(_catContractAddress);\n    }\n\n    function setNeonCatContract(address _catContractAddress) public onlyOwner {\n        _catContract = Catscontract(_catContractAddress);\n    }\n    // get struct details of a specific tokenId on offer\n    function getOffer(uint256 _tokenId) external view returns ( address seller, uint256 price, uint256 index, uint256 tokenId, bool active ) {    \n        Offer storage current_offer = tokenIdToOffer[_tokenId];\n\n        return (current_offer.seller, current_offer.price, current_offer.index, current_offer.tokenId, current_offer.active);\n    }\n    // get all tokens that are on offer regardless of owner\n    function getAllTokenOnSale() external view returns(uint256[] memory listOfOffers){\n        uint256 totalOffers = offers.length;\n        \n            if(totalOffers == 0){\n                return new uint256[](0);\n            } else {\n\n                uint256[] memory result = new uint256[](totalOffers);\n\n                uint256 offerId;\n\n                for (offerId = 0; offerId < totalOffers; offerId++) {\n                    if(offers[offerId].active == true){\n                        result[offerId] = offers[offerId].tokenId;                \n                        }\n                }\n             \n               return result;\n            }            \n    }     \n\n    function _ownsCat(address _address, uint256 _tokenId) internal view returns (bool) {\n        return(_catContract.ownerOf(_tokenId) == _address);\n    }  \n\n    function setOffer(uint256 _price, uint256 _tokenId) external {\n        require(_ownsCat(msg.sender, _tokenId), \"your are not the owner of that Cat\");\n        // check if tokenId is already on offer and if so, throw an error\n        require(tokenIdToOffer[_tokenId].active == false, \"This cat is already on sale\"); \n        // seller needs to have provided approval for specific tokenId or given operator approval for all Ids of this owner\n        // bare in mind that case of individual token approval is not included here\n        require(_catContract.isApprovedForAll(msg.sender, address(this)), \"Contract needs to be approved to transfer the Cat\");\n        \n        Offer memory current_offer = Offer({\n            seller: msg.sender,\n            price: _price,\n            index: offers.length,\n            tokenId: _tokenId,\n            active: true\n        });\n\n        tokenIdToOffer[_tokenId] = current_offer;\n        offers.push(current_offer); \n\n        emit MarketTransaction(\"Offer created\", msg.sender, _tokenId);\n    }\n\n    function removeOffer(uint256 _tokenId) public {\n        Offer memory current_offer = tokenIdToOffer[_tokenId];\n        require(current_offer.seller == msg.sender, \"You are not the seller of that kitty\");\n        \n        delete tokenIdToOffer[_tokenId];\n        offers[tokenIdToOffer[_tokenId].index].active = false;\n\n        emit MarketTransaction(\"Remove offer\", msg.sender, _tokenId);\n    }\n\n    function buyCat(uint256 _tokenId) external payable{\n        Offer memory current_offer = tokenIdToOffer[_tokenId];\n        require(msg.value == current_offer.price, \"The price is incorrect\");\n        require(tokenIdToOffer[_tokenId].active == true, \"Presently no active offer for this Cat\");\n\n        // Important: delete the Cat from the mapping BEFORE paying out to prevent reentry attack\n        delete tokenIdToOffer[_tokenId];\n        offers[current_offer.index].active = false;\n\n        // Transfer the funds to the seller\n        if(current_offer.price > 0) {\n            current_offer.seller.transfer(current_offer.price);\n        }\n\n        // Transfer ownership to the new owner\n        _catContract.transferFrom(current_offer.seller, msg.sender, _tokenId);\n\n        emit MarketTransaction(\"Buy\", msg.sender, _tokenId);\n    }\n\n}",
  "sourcePath": "/Users/imac/Nextcloud/Documents/GitHub/neon-kitties/contracts/NeonCatMarketplace.sol",
  "compiler": {
    "name": "solc",
    "version": "0.5.12+commit.7709ece9.Emscripten.clang"
  },
  "schemaVersion": "3.3.1",
  "updatedAt": "2021-03-23T14:16:28.629Z",
  "devdoc": {
    "methods": {}
  },
  "userdoc": {
    "methods": {}
  }
}