{
  "contractName": "Ownable",
  "abi": [
    {
      "inputs": [],
      "payable": false,
      "stateMutability": "nonpayable",
      "type": "constructor"
    },
    {
      "constant": true,
      "inputs": [],
      "name": "owner",
      "outputs": [
        {
          "internalType": "address",
          "name": "",
          "type": "address"
        }
      ],
      "payable": false,
      "stateMutability": "view",
      "type": "function"
    },
    {
      "constant": false,
      "inputs": [
        {
          "internalType": "address",
          "name": "newOwner",
          "type": "address"
        }
      ],
      "name": "changeOwner",
      "outputs": [],
      "payable": false,
      "stateMutability": "nonpayable",
      "type": "function"
    }
  ],
  "bytecode": "0x608060405234801561001057600080fd5b50336000806101000a81548173ffffffffffffffffffffffffffffffffffffffff021916908373ffffffffffffffffffffffffffffffffffffffff1602179055506101bf806100606000396000f3fe608060405234801561001057600080fd5b50600436106100365760003560e01c80638da5cb5b1461003b578063a6f9dae114610085575b600080fd5b6100436100c9565b604051808273ffffffffffffffffffffffffffffffffffffffff1673ffffffffffffffffffffffffffffffffffffffff16815260200191505060405180910390f35b6100c76004803603602081101561009b57600080fd5b81019080803573ffffffffffffffffffffffffffffffffffffffff1690602001909291905050506100ee565b005b6000809054906101000a900473ffffffffffffffffffffffffffffffffffffffff1681565b6000809054906101000a900473ffffffffffffffffffffffffffffffffffffffff1673ffffffffffffffffffffffffffffffffffffffff163373ffffffffffffffffffffffffffffffffffffffff161461014757600080fd5b806000806101000a81548173ffffffffffffffffffffffffffffffffffffffff021916908373ffffffffffffffffffffffffffffffffffffffff1602179055505056fea265627a7a723158206bbbb4702786a158babd94a255c21ba10e7d708d541a7916729f579debb7bbcb64736f6c634300050c0032",
  "source": "// SPDX-License-Identifier: SPDX-License\r\n\r\npragma solidity 0.5.12;\r\n\r\ncontract Ownable{\r\n    \r\n    address public owner;\r\n\r\n    modifier canBreed(uint energy){\r\n        require(energy >= 20, \"minimum energy level for breeding is 20 units\");\r\n        _;\r\n    }\r\n    \r\n    modifier onlyOwner(){\r\n        require(msg.sender == owner);\r\n        _; // continue execution\r\n        }\r\n        \r\n     modifier validAddress(address checkAddress){\r\n        require(checkAddress != address(0));\r\n        _; // continue execution\r\n        }   \r\n    \r\n    constructor() public{\r\n        owner = msg.sender;\r\n    }\r\n    \r\n    function changeOwner(address newOwner) public onlyOwner {\r\n        owner = newOwner;\r\n    }\r\n\r\n       // validate string petName checking if min/max length is met\r\n    modifier catNameValidator(string memory str) {\r\n        \r\n        uint length = _utf8StringLength(str);\r\n        \r\n        require(length <= 20, \"Petname too long, length is limited to 20 characters\");\r\n        require(length >= 3, \"Petname too short, please assure a minimum of 3 characters\");\r\n        _;\r\n    }\r\n    \r\n    // get string length of user-chosen cat name (front-end)\r\n    function _utf8StringLength(string memory str) private pure returns (uint) {\r\n        return bytes(str).length;\r\n    }\r\n    \r\n\r\n}",
  "sourcePath": "C:\\wamp64\\www\\andreas\\neon-kitties\\contracts\\Ownable.sol",
  "compiler": {
    "name": "solc",
    "version": "0.5.12+commit.7709ece9.Emscripten.clang"
  },
  "schemaVersion": "3.2.5",
  "updatedAt": "2021-07-02T14:40:22.704Z",
  "devdoc": {
    "methods": {}
  },
  "userdoc": {
    "methods": {}
  }
}