{
  "contractName": "Catscontract",
  "abi": [
    {
      "anonymous": false,
      "inputs": [
        {
          "indexed": true,
          "internalType": "address",
          "name": "owner",
          "type": "address"
        },
        {
          "indexed": true,
          "internalType": "address",
          "name": "approved",
          "type": "address"
        },
        {
          "indexed": true,
          "internalType": "uint256",
          "name": "tokenId",
          "type": "uint256"
        }
      ],
      "name": "Approval",
      "type": "event"
    },
    {
      "anonymous": false,
      "inputs": [
        {
          "indexed": false,
          "internalType": "address",
          "name": "owner",
          "type": "address"
        },
        {
          "indexed": false,
          "internalType": "uint256",
          "name": "newCatId",
          "type": "uint256"
        },
        {
          "indexed": false,
          "internalType": "uint256",
          "name": "mumId",
          "type": "uint256"
        },
        {
          "indexed": false,
          "internalType": "uint256",
          "name": "dadId",
          "type": "uint256"
        },
        {
          "indexed": false,
          "internalType": "uint256",
          "name": "genes",
          "type": "uint256"
        }
      ],
      "name": "Birth",
      "type": "event"
    },
    {
      "anonymous": false,
      "inputs": [
        {
          "indexed": true,
          "internalType": "address",
          "name": "from",
          "type": "address"
        },
        {
          "indexed": true,
          "internalType": "address",
          "name": "to",
          "type": "address"
        },
        {
          "indexed": true,
          "internalType": "uint256",
          "name": "tokenId",
          "type": "uint256"
        }
      ],
      "name": "Transfer",
      "type": "event"
    },
    {
      "constant": true,
      "inputs": [
        {
          "internalType": "uint256",
          "name": "",
          "type": "uint256"
        }
      ],
      "name": "catIndexToOwner",
      "outputs": [
        {
          "internalType": "address",
          "name": "",
          "type": "address"
        }
      ],
      "payable": false,
      "stateMutability": "view",
      "type": "function"
    },
    {
      "constant": false,
      "inputs": [
        {
          "internalType": "address",
          "name": "newOwner",
          "type": "address"
        }
      ],
      "name": "changeOwner",
      "outputs": [],
      "payable": false,
      "stateMutability": "nonpayable",
      "type": "function"
    },
    {
      "constant": true,
      "inputs": [],
      "name": "gen0Counter",
      "outputs": [
        {
          "internalType": "uint256",
          "name": "",
          "type": "uint256"
        }
      ],
      "payable": false,
      "stateMutability": "view",
      "type": "function"
    },
    {
      "constant": true,
      "inputs": [],
      "name": "name",
      "outputs": [
        {
          "internalType": "string",
          "name": "",
          "type": "string"
        }
      ],
      "payable": false,
      "stateMutability": "view",
      "type": "function"
    },
    {
      "constant": true,
      "inputs": [],
      "name": "owner",
      "outputs": [
        {
          "internalType": "address",
          "name": "",
          "type": "address"
        }
      ],
      "payable": false,
      "stateMutability": "view",
      "type": "function"
    },
    {
      "constant": true,
      "inputs": [
        {
          "internalType": "address",
          "name": "",
          "type": "address"
        },
        {
          "internalType": "uint256",
          "name": "",
          "type": "uint256"
        }
      ],
      "name": "ownerCats",
      "outputs": [
        {
          "internalType": "uint256",
          "name": "",
          "type": "uint256"
        }
      ],
      "payable": false,
      "stateMutability": "view",
      "type": "function"
    },
    {
      "constant": true,
      "inputs": [],
      "name": "supplyLimitGen0",
      "outputs": [
        {
          "internalType": "uint256",
          "name": "",
          "type": "uint256"
        }
      ],
      "payable": false,
      "stateMutability": "view",
      "type": "function"
    },
    {
      "constant": true,
      "inputs": [],
      "name": "symbol",
      "outputs": [
        {
          "internalType": "string",
          "name": "",
          "type": "string"
        }
      ],
      "payable": false,
      "stateMutability": "view",
      "type": "function"
    },
    {
      "constant": false,
      "inputs": [
        {
          "internalType": "uint256",
          "name": "_genes",
          "type": "uint256"
        }
      ],
      "name": "createCatGen0",
      "outputs": [
        {
          "internalType": "uint256",
          "name": "",
          "type": "uint256"
        }
      ],
      "payable": false,
      "stateMutability": "nonpayable",
      "type": "function"
    },
    {
      "constant": true,
      "inputs": [
        {
          "internalType": "address",
          "name": "_owner",
          "type": "address"
        }
      ],
      "name": "getNeonCatsPerOwner",
      "outputs": [
        {
          "internalType": "uint256[]",
          "name": "",
          "type": "uint256[]"
        }
      ],
      "payable": false,
      "stateMutability": "view",
      "type": "function"
    },
    {
      "constant": true,
      "inputs": [
        {
          "internalType": "uint256",
          "name": "_tokenId",
          "type": "uint256"
        }
      ],
      "name": "getCat",
      "outputs": [
        {
          "internalType": "uint256",
          "name": "genes",
          "type": "uint256"
        },
        {
          "internalType": "uint256",
          "name": "birthTime",
          "type": "uint256"
        },
        {
          "internalType": "uint256",
          "name": "mumId",
          "type": "uint256"
        },
        {
          "internalType": "uint256",
          "name": "dadId",
          "type": "uint256"
        },
        {
          "internalType": "uint256",
          "name": "generation",
          "type": "uint256"
        }
      ],
      "payable": false,
      "stateMutability": "view",
      "type": "function"
    },
    {
      "constant": true,
      "inputs": [
        {
          "internalType": "address",
          "name": "owner",
          "type": "address"
        }
      ],
      "name": "balanceOf",
      "outputs": [
        {
          "internalType": "uint256",
          "name": "balance",
          "type": "uint256"
        }
      ],
      "payable": false,
      "stateMutability": "view",
      "type": "function"
    },
    {
      "constant": true,
      "inputs": [],
      "name": "totalSupply",
      "outputs": [
        {
          "internalType": "uint256",
          "name": "",
          "type": "uint256"
        }
      ],
      "payable": false,
      "stateMutability": "view",
      "type": "function"
    },
    {
      "constant": true,
      "inputs": [
        {
          "internalType": "uint256",
          "name": "_tokenId",
          "type": "uint256"
        }
      ],
      "name": "ownerOf",
      "outputs": [
        {
          "internalType": "address",
          "name": "",
          "type": "address"
        }
      ],
      "payable": false,
      "stateMutability": "view",
      "type": "function"
    },
    {
      "constant": false,
      "inputs": [
        {
          "internalType": "address",
          "name": "_to",
          "type": "address"
        },
        {
          "internalType": "uint256",
          "name": "_tokenId",
          "type": "uint256"
        }
      ],
      "name": "transfer",
      "outputs": [],
      "payable": false,
      "stateMutability": "nonpayable",
      "type": "function"
    }
  ],
  "bytecode": "0x6080604052336000806101000a81548173ffffffffffffffffffffffffffffffffffffffff021916908373ffffffffffffffffffffffffffffffffffffffff16021790555061104c806100536000396000f3fe608060405234801561001057600080fd5b50600436106100f55760003560e01c806370a0823111610097578063a6f9dae111610066578063a6f9dae1146104e7578063a9059cbb1461052b578063abadce7814610579578063ef5e94aa146105e7576100f5565b806370a08231146103a457806382b062c0146103fc5780638da5cb5b1461041a57806395d89b4114610464576100f5565b80633c493515116100d35780633c493515146101dd5780634da2b48e1461023f5780636352211e1461029d5780636d6615ce1461030b576100f5565b806306fdde03146100fa57806312a55c961461017d57806318160ddd146101bf575b600080fd5b610102610605565b6040518080602001828103825283818151815260200191508051906020019080838360005b83811015610142578082015181840152602081019050610127565b50505050905090810190601f16801561016f5780820380516001836020036101000a031916815260200191505b509250505060405180910390f35b6101a96004803603602081101561019357600080fd5b810190808035906020019092919050505061063e565b6040518082815260200191505060405180910390f35b6101c76106d0565b6040518082815260200191505060405180910390f35b610229600480360360408110156101f357600080fd5b81019080803573ffffffffffffffffffffffffffffffffffffffff169060200190929190803590602001909291905050506106dd565b6040518082815260200191505060405180910390f35b61026b6004803603602081101561025557600080fd5b810190808035906020019092919050505061070b565b604051808681526020018581526020018481526020018381526020018281526020019550505050505060405180910390f35b6102c9600480360360208110156102b357600080fd5b8101908080359060200190929190505050610829565b604051808273ffffffffffffffffffffffffffffffffffffffff1673ffffffffffffffffffffffffffffffffffffffff16815260200191505060405180910390f35b61034d6004803603602081101561032157600080fd5b81019080803573ffffffffffffffffffffffffffffffffffffffff169060200190929190505050610866565b6040518080602001828103825283818151815260200191508051906020019060200280838360005b83811015610390578082015181840152602081019050610375565b505050509050019250505060405180910390f35b6103e6600480360360208110156103ba57600080fd5b81019080803573ffffffffffffffffffffffffffffffffffffffff169060200190929190505050610993565b6040518082815260200191505060405180910390f35b6104046109dc565b6040518082815260200191505060405180910390f35b6104226109e1565b604051808273ffffffffffffffffffffffffffffffffffffffff1673ffffffffffffffffffffffffffffffffffffffff16815260200191505060405180910390f35b61046c610a06565b6040518080602001828103825283818151815260200191508051906020019080838360005b838110156104ac578082015181840152602081019050610491565b50505050905090810190601f1680156104d95780820380516001836020036101000a031916815260200191505b509250505060405180910390f35b610529600480360360208110156104fd57600080fd5b81019080803573ffffffffffffffffffffffffffffffffffffffff169060200190929190505050610a3f565b005b6105776004803603604081101561054157600080fd5b81019080803573ffffffffffffffffffffffffffffffffffffffff16906020019092919080359060200190929190505050610adb565b005b6105a56004803603602081101561058f57600080fd5b8101908080359060200190929190505050610b70565b604051808273ffffffffffffffffffffffffffffffffffffffff1673ffffffffffffffffffffffffffffffffffffffff16815260200191505060405180910390f35b6105ef610ba3565b6040518082815260200191505060405180910390f35b6040518060400160405280600881526020017f4e656f6e6361747300000000000000000000000000000000000000000000000081525081565b60008060009054906101000a900473ffffffffffffffffffffffffffffffffffffffff1673ffffffffffffffffffffffffffffffffffffffff163373ffffffffffffffffffffffffffffffffffffffff161461069957600080fd5b600a600554106106a857600080fd5b6005600081548092919060010191905055506106c960008060008533610ba9565b9050919050565b6000600180549050905090565b600460205281600052604060002081815481106106f657fe5b90600052602060002001600091509150505481565b60008060008060006001868154811061072057fe5b9060005260206000209060020201600001546001878154811061073f57fe5b906000526020600020906002020160010160009054906101000a900467ffffffffffffffff166001888154811061077257fe5b906000526020600020906002020160010160089054906101000a900463ffffffff16600189815481106107a157fe5b9060005260206000209060020201600101600c9054906101000a900463ffffffff1660018a815481106107d057fe5b906000526020600020906002020160010160109054906101000a900461ffff168367ffffffffffffffff1693508263ffffffff1692508163ffffffff1691508061ffff1690509450945094509450945091939590929450565b60006002600083815260200190815260200160002060009054906101000a900473ffffffffffffffffffffffffffffffffffffffff169050919050565b606080600360008473ffffffffffffffffffffffffffffffffffffffff1673ffffffffffffffffffffffffffffffffffffffff168152602001908152602001600020546040519080825280602002602001820160405280156108d75781602001602082028038833980820191505090505b509050600080905060008090505b600180549050811015610988578473ffffffffffffffffffffffffffffffffffffffff166002600083815260200190815260200160002060009054906101000a900473ffffffffffffffffffffffffffffffffffffffff1673ffffffffffffffffffffffffffffffffffffffff16141561097b578083838151811061096657fe5b60200260200101818152505081806001019250505b80806001019150506108e5565b508192505050919050565b6000600360008373ffffffffffffffffffffffffffffffffffffffff1673ffffffffffffffffffffffffffffffffffffffff168152602001908152602001600020549050919050565b600a81565b6000809054906101000a900473ffffffffffffffffffffffffffffffffffffffff1681565b6040518060400160405280600281526020017f4e4300000000000000000000000000000000000000000000000000000000000081525081565b6000809054906101000a900473ffffffffffffffffffffffffffffffffffffffff1673ffffffffffffffffffffffffffffffffffffffff163373ffffffffffffffffffffffffffffffffffffffff1614610a9857600080fd5b806000806101000a81548173ffffffffffffffffffffffffffffffffffffffff021916908373ffffffffffffffffffffffffffffffffffffffff16021790555050565b600073ffffffffffffffffffffffffffffffffffffffff168273ffffffffffffffffffffffffffffffffffffffff161415610b1557600080fd5b3073ffffffffffffffffffffffffffffffffffffffff168273ffffffffffffffffffffffffffffffffffffffff161415610b4e57600080fd5b610b583382610ddc565b610b6157600080fd5b610b6c338383610e48565b5050565b60026020528060005260406000206000915054906101000a900473ffffffffffffffffffffffffffffffffffffffff1681565b60055481565b6000610bb3610fce565b6040518060a001604052808581526020014267ffffffffffffffff1681526020018863ffffffff1681526020018763ffffffff1681526020018661ffff168152509050600060018083908060018154018082558091505090600182039060005260206000209060020201600090919290919091506000820151816000015560208201518160010160006101000a81548167ffffffffffffffff021916908367ffffffffffffffff16021790555060408201518160010160086101000a81548163ffffffff021916908363ffffffff160217905550606082015181600101600c6101000a81548163ffffffff021916908363ffffffff16021790555060808201518160010160106101000a81548161ffff021916908361ffff1602179055505050039050600460003373ffffffffffffffffffffffffffffffffffffffff1673ffffffffffffffffffffffffffffffffffffffff1681526020019081526020016000208190806001815401808255809150509060018203906000526020600020016000909192909190915055507f0a5311bd2a6608f08a180df2ee7c5946819a649b204b554bb8e39825b2c50ad584828a8a89604051808673ffffffffffffffffffffffffffffffffffffffff1673ffffffffffffffffffffffffffffffffffffffff1681526020018581526020018481526020018381526020018281526020019550505050505060405180910390a1610dce60008583610e48565b809250505095945050505050565b60008273ffffffffffffffffffffffffffffffffffffffff166002600084815260200190815260200160002060009054906101000a900473ffffffffffffffffffffffffffffffffffffffff1673ffffffffffffffffffffffffffffffffffffffff1614905092915050565b600360008373ffffffffffffffffffffffffffffffffffffffff1673ffffffffffffffffffffffffffffffffffffffff16815260200190815260200160002060008154809291906001019190505550816002600083815260200190815260200160002060006101000a81548173ffffffffffffffffffffffffffffffffffffffff021916908373ffffffffffffffffffffffffffffffffffffffff160217905550600073ffffffffffffffffffffffffffffffffffffffff168373ffffffffffffffffffffffffffffffffffffffff1614610f6e57600360008473ffffffffffffffffffffffffffffffffffffffff1673ffffffffffffffffffffffffffffffffffffffff16815260200190815260200160002060008154809291906001900391905055505b808273ffffffffffffffffffffffffffffffffffffffff168473ffffffffffffffffffffffffffffffffffffffff167fddf252ad1be2c89b69c2b068fc378daa952ba7f163c4a11628f55a4df523b3ef60405160405180910390a4505050565b6040518060a0016040528060008152602001600067ffffffffffffffff168152602001600063ffffffff168152602001600063ffffffff168152602001600061ffff168152509056fea265627a7a72315820ca703668528ce2844badc8f55bbb10a96ab7f078648df5b542588733591b587a64736f6c634300050c0032",
  "source": "// SPDX-License-Identifier: SPDX-License\n\npragma solidity 0.5.12;\n\nimport \"./IERC721.sol\";\nimport \"./Ownable.sol\";\n\ncontract Catscontract is IERC721, Ownable {\n\n    uint256 public constant supplyLimitGen0 = 10;\n    string public constant name = \"Neoncats\";\n    string public constant symbol = \"NC\";\n\n    struct Neoncat {\n        uint256 genes;\n        uint64 birthTime;\n        uint32 mumId;\n        uint32 dadId;\n        uint16 generation;\n    }\n\n    Neoncat[] neoncats;\n\n    mapping(uint256 => address) public catIndexToOwner;\n    mapping(address => uint256) ownershipTokenCount;\n    mapping(address => uint256[]) public ownerCats;\n    \n\n    event Transfer(address indexed from, address indexed to, uint256 indexed tokenId);\n    event Approval(address indexed owner, address indexed approved, uint256 indexed tokenId);\n    event Birth(address owner, uint256 newCatId, uint256 mumId, uint256 dadId, uint256 genes);\n\n    uint256 public gen0Counter;\n\n    // set mumID, dadID and generation to 0, _genes from input and owner = 0address / msg.sender\n    // create var to limit 0 generation to max amount 10, add require and increase counter\n    function createCatGen0(uint256 _genes) public onlyOwner returns (uint256){\n        require(gen0Counter < supplyLimitGen0);\n        // assure no DNA duplicates via a if-condition that stops generation if this condition is not met:  _genes != _existingGenes\n        // ¿how to access existing genes? --> Birth event?\n\n        gen0Counter++;\n\n        return _createNeonCat(0, 0, 0, _genes, msg.sender);\n     }\n\n    function getNeonCatsPerOwner(address _owner) external view returns (uint [] memory){\n        uint[] memory result = new uint[](ownershipTokenCount[_owner]);\n        uint counter = 0;\n        for(uint i = 0; i < neoncats.length; i++){\n            if (catIndexToOwner[i] == _owner) {\n                result[counter] = i;\n                counter++;\n            }\n        }\n        return result;\n    }\n   /* function getCatIdsPerOwner() public view returns (uint [] memory){\n        return ownerCats[msg.sender];\n    }\n    */\n\n    function getCat(uint256 _tokenId) public view returns(uint256 genes, uint256 birthTime, uint256 mumId, uint256 dadId, uint256 generation){        \n        \n        //Neoncat storage neoncat = neoncats[_tokenId];\n\n        return(neoncats[_tokenId].genes, neoncats[_tokenId].birthTime, neoncats[_tokenId].mumId, neoncats[_tokenId].dadId, neoncats[_tokenId].generation);\n    }\n\n    // function is private as meant to be executed only from within this contract \n    function _createNeonCat(uint256 _mumId, uint256 _dadId, uint256 _generation, uint256 _genes, address _owner\n    ) private returns (uint256){\n        Neoncat memory _neoncat = Neoncat({\n            genes: _genes,\n            birthTime: uint64(now),\n            mumId: uint32(_mumId),\n            dadId: uint32(_dadId),\n            generation: uint16(_generation)\n        });\n\n        // is the same as \n        // _neoncat.genes = genes;\n        // _neoncat.birthTime = uint64(now); etc.\n\n        uint256 newCatId = neoncats.push(_neoncat) -1;\n        \n        ownerCats[msg.sender].push(newCatId);\n\n        emit Birth(_owner, newCatId, _mumId, _dadId, _genes);\n\n        _transfer(address(0), _owner, newCatId);\n\n        return newCatId;\n    }\n\n    \n\n    function balanceOf(address owner) external view returns (uint256 balance){\n        return ownershipTokenCount[owner];\n    }\n\n    function totalSupply() public view returns (uint256) {\n        return neoncats.length;\n    }\n     /**\n     * @dev Returns the owner of the `tokenId` token.\n     *\n     * Requirements:\n     *\n     * - `tokenId` must exist.\n     */\n    function ownerOf(uint256 _tokenId) external view returns (address){\n        return catIndexToOwner[_tokenId];\n    }\n\n     /* @dev Transfers `tokenId` token from `msg.sender` to `to`.\n     *\n     *\n     * Requirements:\n     *\n     * - `to` cannot be the zero address.\n     * - `to` can not be the contract address.\n     * - `tokenId` token must be owned by `msg.sender`.\n     *\n     * Emits a {Transfer} event.\n     */\n    function transfer(address _to, uint256 _tokenId) external{\n        require(_to != address(0));\n        require(_to != address(this));\n        require(_owns(msg.sender, _tokenId));\n\n        _transfer(msg.sender, _to, _tokenId);\n    }\n\n    function _transfer(address _from, address _to, uint256 _tokenId) internal {\n        ownershipTokenCount[_to]++;\n\n        catIndexToOwner[_tokenId] = _to;\n\n        if (_from != address(0)) {\n            ownershipTokenCount[_from]--;\n        }\n\n        emit Transfer(_from, _to, _tokenId);\n    }\n\n    function _owns(address _claimant, uint256 _tokenId) internal view returns (bool){\n        return (catIndexToOwner[_tokenId] == _claimant);\n    }\n\n\n\n}",
  "sourcePath": "/Users/imac/Nextcloud/Documents/GitHub/neon-kitties/contracts/Catcontract.sol",
  "compiler": {
    "name": "solc",
    "version": "0.5.12+commit.7709ece9.Emscripten.clang"
  },
  "schemaVersion": "3.3.1",
  "updatedAt": "2020-12-10T11:10:30.115Z",
  "networkType": "ethereum",
  "devdoc": {
    "methods": {
      "ownerOf(uint256)": {
        "details": "Returns the owner of the `tokenId` token.     * Requirements:     * - `tokenId` must exist."
      }
    }
  },
  "userdoc": {
    "methods": {}
  }
}