{
  "contractName": "Catscontract",
  "abi": [
    {
      "anonymous": false,
      "inputs": [
        {
          "indexed": true,
          "internalType": "address",
          "name": "owner",
          "type": "address"
        },
        {
          "indexed": true,
          "internalType": "address",
          "name": "approved",
          "type": "address"
        },
        {
          "indexed": true,
          "internalType": "uint256",
          "name": "tokenId",
          "type": "uint256"
        }
      ],
      "name": "Approval",
      "type": "event"
    },
    {
      "anonymous": false,
      "inputs": [
        {
          "indexed": true,
          "internalType": "address",
          "name": "owner",
          "type": "address"
        },
        {
          "indexed": true,
          "internalType": "address",
          "name": "operator",
          "type": "address"
        },
        {
          "indexed": false,
          "internalType": "bool",
          "name": "approved",
          "type": "bool"
        }
      ],
      "name": "ApprovalForAll",
      "type": "event"
    },
    {
      "anonymous": false,
      "inputs": [
        {
          "indexed": false,
          "internalType": "address",
          "name": "owner",
          "type": "address"
        },
        {
          "indexed": false,
          "internalType": "uint256",
          "name": "newCatId",
          "type": "uint256"
        },
        {
          "indexed": false,
          "internalType": "uint256",
          "name": "mumId",
          "type": "uint256"
        },
        {
          "indexed": false,
          "internalType": "uint256",
          "name": "dadId",
          "type": "uint256"
        },
        {
          "indexed": false,
          "internalType": "uint256",
          "name": "genes",
          "type": "uint256"
        }
      ],
      "name": "Birth",
      "type": "event"
    },
    {
      "anonymous": false,
      "inputs": [
        {
          "indexed": true,
          "internalType": "address",
          "name": "from",
          "type": "address"
        },
        {
          "indexed": true,
          "internalType": "address",
          "name": "to",
          "type": "address"
        },
        {
          "indexed": true,
          "internalType": "uint256",
          "name": "tokenId",
          "type": "uint256"
        }
      ],
      "name": "Transfer",
      "type": "event"
    },
    {
      "constant": true,
      "inputs": [
        {
          "internalType": "uint256",
          "name": "",
          "type": "uint256"
        }
      ],
      "name": "catIndexToOwner",
      "outputs": [
        {
          "internalType": "address",
          "name": "",
          "type": "address"
        }
      ],
      "payable": false,
      "stateMutability": "view",
      "type": "function"
    },
    {
      "constant": false,
      "inputs": [
        {
          "internalType": "address",
          "name": "newOwner",
          "type": "address"
        }
      ],
      "name": "changeOwner",
      "outputs": [],
      "payable": false,
      "stateMutability": "nonpayable",
      "type": "function"
    },
    {
      "constant": true,
      "inputs": [],
      "name": "gen0Counter",
      "outputs": [
        {
          "internalType": "uint256",
          "name": "",
          "type": "uint256"
        }
      ],
      "payable": false,
      "stateMutability": "view",
      "type": "function"
    },
    {
      "constant": true,
      "inputs": [],
      "name": "name",
      "outputs": [
        {
          "internalType": "string",
          "name": "",
          "type": "string"
        }
      ],
      "payable": false,
      "stateMutability": "view",
      "type": "function"
    },
    {
      "constant": true,
      "inputs": [
        {
          "internalType": "uint256",
          "name": "",
          "type": "uint256"
        }
      ],
      "name": "neonCatIndexToApproved",
      "outputs": [
        {
          "internalType": "address",
          "name": "",
          "type": "address"
        }
      ],
      "payable": false,
      "stateMutability": "view",
      "type": "function"
    },
    {
      "constant": true,
      "inputs": [],
      "name": "owner",
      "outputs": [
        {
          "internalType": "address",
          "name": "",
          "type": "address"
        }
      ],
      "payable": false,
      "stateMutability": "view",
      "type": "function"
    },
    {
      "constant": true,
      "inputs": [
        {
          "internalType": "address",
          "name": "",
          "type": "address"
        },
        {
          "internalType": "uint256",
          "name": "",
          "type": "uint256"
        }
      ],
      "name": "ownerCats",
      "outputs": [
        {
          "internalType": "uint256",
          "name": "",
          "type": "uint256"
        }
      ],
      "payable": false,
      "stateMutability": "view",
      "type": "function"
    },
    {
      "constant": true,
      "inputs": [],
      "name": "supplyLimitGen0",
      "outputs": [
        {
          "internalType": "uint256",
          "name": "",
          "type": "uint256"
        }
      ],
      "payable": false,
      "stateMutability": "view",
      "type": "function"
    },
    {
      "constant": true,
      "inputs": [],
      "name": "symbol",
      "outputs": [
        {
          "internalType": "string",
          "name": "",
          "type": "string"
        }
      ],
      "payable": false,
      "stateMutability": "view",
      "type": "function"
    },
    {
      "constant": false,
      "inputs": [
        {
          "internalType": "uint256",
          "name": "_dadId",
          "type": "uint256"
        },
        {
          "internalType": "uint256",
          "name": "_mumId",
          "type": "uint256"
        }
      ],
      "name": "breed",
      "outputs": [
        {
          "internalType": "uint256",
          "name": "",
          "type": "uint256"
        }
      ],
      "payable": false,
      "stateMutability": "nonpayable",
      "type": "function"
    },
    {
      "constant": true,
      "inputs": [
        {
          "internalType": "bytes4",
          "name": "_interfaceId",
          "type": "bytes4"
        }
      ],
      "name": "supportsInterface",
      "outputs": [
        {
          "internalType": "bool",
          "name": "",
          "type": "bool"
        }
      ],
      "payable": false,
      "stateMutability": "view",
      "type": "function"
    },
    {
      "constant": false,
      "inputs": [
        {
          "internalType": "uint256",
          "name": "_genes",
          "type": "uint256"
        }
      ],
      "name": "createCatGen0",
      "outputs": [
        {
          "internalType": "uint256",
          "name": "",
          "type": "uint256"
        }
      ],
      "payable": false,
      "stateMutability": "nonpayable",
      "type": "function"
    },
    {
      "constant": true,
      "inputs": [
        {
          "internalType": "address",
          "name": "_owner",
          "type": "address"
        }
      ],
      "name": "getNeonCatsPerOwner",
      "outputs": [
        {
          "internalType": "uint256[]",
          "name": "",
          "type": "uint256[]"
        }
      ],
      "payable": false,
      "stateMutability": "view",
      "type": "function"
    },
    {
      "constant": true,
      "inputs": [
        {
          "internalType": "uint256",
          "name": "_tokenId",
          "type": "uint256"
        }
      ],
      "name": "getCat",
      "outputs": [
        {
          "internalType": "uint256",
          "name": "genes",
          "type": "uint256"
        },
        {
          "internalType": "uint256",
          "name": "birthTime",
          "type": "uint256"
        },
        {
          "internalType": "uint256",
          "name": "mumId",
          "type": "uint256"
        },
        {
          "internalType": "uint256",
          "name": "dadId",
          "type": "uint256"
        },
        {
          "internalType": "uint256",
          "name": "generation",
          "type": "uint256"
        }
      ],
      "payable": false,
      "stateMutability": "view",
      "type": "function"
    },
    {
      "constant": true,
      "inputs": [
        {
          "internalType": "address",
          "name": "owner",
          "type": "address"
        }
      ],
      "name": "balanceOf",
      "outputs": [
        {
          "internalType": "uint256",
          "name": "balance",
          "type": "uint256"
        }
      ],
      "payable": false,
      "stateMutability": "view",
      "type": "function"
    },
    {
      "constant": true,
      "inputs": [],
      "name": "totalSupply",
      "outputs": [
        {
          "internalType": "uint256",
          "name": "",
          "type": "uint256"
        }
      ],
      "payable": false,
      "stateMutability": "view",
      "type": "function"
    },
    {
      "constant": true,
      "inputs": [
        {
          "internalType": "uint256",
          "name": "_tokenId",
          "type": "uint256"
        }
      ],
      "name": "ownerOf",
      "outputs": [
        {
          "internalType": "address",
          "name": "",
          "type": "address"
        }
      ],
      "payable": false,
      "stateMutability": "view",
      "type": "function"
    },
    {
      "constant": false,
      "inputs": [
        {
          "internalType": "address",
          "name": "_from",
          "type": "address"
        },
        {
          "internalType": "address",
          "name": "_to",
          "type": "address"
        },
        {
          "internalType": "uint256",
          "name": "_tokenId",
          "type": "uint256"
        }
      ],
      "name": "safeTransferFrom",
      "outputs": [],
      "payable": false,
      "stateMutability": "nonpayable",
      "type": "function"
    },
    {
      "constant": false,
      "inputs": [
        {
          "internalType": "address",
          "name": "_from",
          "type": "address"
        },
        {
          "internalType": "address",
          "name": "_to",
          "type": "address"
        },
        {
          "internalType": "uint256",
          "name": "_tokenId",
          "type": "uint256"
        },
        {
          "internalType": "bytes",
          "name": "_data",
          "type": "bytes"
        }
      ],
      "name": "safeTransferFrom",
      "outputs": [],
      "payable": false,
      "stateMutability": "nonpayable",
      "type": "function"
    },
    {
      "constant": false,
      "inputs": [
        {
          "internalType": "address",
          "name": "_to",
          "type": "address"
        },
        {
          "internalType": "uint256",
          "name": "_tokenId",
          "type": "uint256"
        }
      ],
      "name": "transfer",
      "outputs": [],
      "payable": false,
      "stateMutability": "nonpayable",
      "type": "function"
    },
    {
      "constant": true,
      "inputs": [
        {
          "internalType": "address",
          "name": "owner",
          "type": "address"
        },
        {
          "internalType": "address",
          "name": "operator",
          "type": "address"
        }
      ],
      "name": "isApprovedForAll",
      "outputs": [
        {
          "internalType": "bool",
          "name": "",
          "type": "bool"
        }
      ],
      "payable": false,
      "stateMutability": "view",
      "type": "function"
    },
    {
      "constant": false,
      "inputs": [
        {
          "internalType": "address",
          "name": "_from",
          "type": "address"
        },
        {
          "internalType": "address",
          "name": "_to",
          "type": "address"
        },
        {
          "internalType": "uint256",
          "name": "_tokenId",
          "type": "uint256"
        }
      ],
      "name": "transferFrom",
      "outputs": [],
      "payable": false,
      "stateMutability": "nonpayable",
      "type": "function"
    },
    {
      "constant": false,
      "inputs": [
        {
          "internalType": "address",
          "name": "_to",
          "type": "address"
        },
        {
          "internalType": "uint256",
          "name": "_tokenId",
          "type": "uint256"
        }
      ],
      "name": "approve",
      "outputs": [],
      "payable": false,
      "stateMutability": "nonpayable",
      "type": "function"
    },
    {
      "constant": true,
      "inputs": [
        {
          "internalType": "uint256",
          "name": "_tokenId",
          "type": "uint256"
        }
      ],
      "name": "getApproved",
      "outputs": [
        {
          "internalType": "address",
          "name": "",
          "type": "address"
        }
      ],
      "payable": false,
      "stateMutability": "view",
      "type": "function"
    },
    {
      "constant": false,
      "inputs": [
        {
          "internalType": "address",
          "name": "operator",
          "type": "address"
        },
        {
          "internalType": "bool",
          "name": "approved",
          "type": "bool"
        }
      ],
      "name": "setApprovalForAll",
      "outputs": [],
      "payable": false,
      "stateMutability": "nonpayable",
      "type": "function"
    }
  ],
  "bytecode": "0x6080604052336000806101000a81548173ffffffffffffffffffffffffffffffffffffffff021916908373ffffffffffffffffffffffffffffffffffffffff160217905550612043806100536000396000f3fe608060405234801561001057600080fd5b50600436106101735760003560e01c806370a08231116100de578063a9059cbb11610097578063d674595811610071578063d674595814610975578063d9ecad7b146109e3578063e985e9c514610a2f578063ef5e94aa14610aab57610173565b8063a9059cbb146107f6578063abadce7814610844578063b88d4fde146108b257610173565b806370a082311461061f57806382b062c0146106775780638da5cb5b1461069557806395d89b41146106df578063a22cb46514610762578063a6f9dae1146107b257610173565b806323b872dd1161013057806323b872dd1461037c5780633c493515146103ea57806342842e0e1461044c5780634da2b48e146104ba5780636352211e146105185780636d6615ce1461058657610173565b806301ffc9a71461017857806306fdde03146101dd578063081812fc14610260578063095ea7b3146102ce57806312a55c961461031c57806318160ddd1461035e575b600080fd5b6101c36004803603602081101561018e57600080fd5b8101908080357bffffffffffffffffffffffffffffffffffffffffffffffffffffffff19169060200190929190505050610ac9565b604051808215151515815260200191505060405180910390f35b6101e5610b69565b6040518080602001828103825283818151815260200191508051906020019080838360005b8381101561022557808201518184015260208101905061020a565b50505050905090810190601f1680156102525780820380516001836020036101000a031916815260200191505b509250505060405180910390f35b61028c6004803603602081101561027657600080fd5b8101908080359060200190929190505050610ba2565b604051808273ffffffffffffffffffffffffffffffffffffffff1673ffffffffffffffffffffffffffffffffffffffff16815260200191505060405180910390f35b61031a600480360360408110156102e457600080fd5b81019080803573ffffffffffffffffffffffffffffffffffffffff16906020019092919080359060200190929190505050610bf0565b005b6103486004803603602081101561033257600080fd5b8101908080359060200190929190505050610c6c565b6040518082815260200191505060405180910390f35b610366610cfe565b6040518082815260200191505060405180910390f35b6103e86004803603606081101561039257600080fd5b81019080803573ffffffffffffffffffffffffffffffffffffffff169060200190929190803573ffffffffffffffffffffffffffffffffffffffff16906020019092919080359060200190929190505050610d0b565b005b6104366004803603604081101561040057600080fd5b81019080803573ffffffffffffffffffffffffffffffffffffffff16906020019092919080359060200190929190505050610d30565b6040518082815260200191505060405180910390f35b6104b86004803603606081101561046257600080fd5b81019080803573ffffffffffffffffffffffffffffffffffffffff169060200190929190803573ffffffffffffffffffffffffffffffffffffffff16906020019092919080359060200190929190505050610d5e565b005b6104e6600480360360208110156104d057600080fd5b8101908080359060200190929190505050610d7e565b604051808681526020018581526020018481526020018381526020018281526020019550505050505060405180910390f35b6105446004803603602081101561052e57600080fd5b8101908080359060200190929190505050610e9c565b604051808273ffffffffffffffffffffffffffffffffffffffff1673ffffffffffffffffffffffffffffffffffffffff16815260200191505060405180910390f35b6105c86004803603602081101561059c57600080fd5b81019080803573ffffffffffffffffffffffffffffffffffffffff169060200190929190505050610ed9565b6040518080602001828103825283818151815260200191508051906020019060200280838360005b8381101561060b5780820151818401526020810190506105f0565b505050509050019250505060405180910390f35b6106616004803603602081101561063557600080fd5b81019080803573ffffffffffffffffffffffffffffffffffffffff169060200190929190505050611006565b6040518082815260200191505060405180910390f35b61067f61104f565b6040518082815260200191505060405180910390f35b61069d611054565b604051808273ffffffffffffffffffffffffffffffffffffffff1673ffffffffffffffffffffffffffffffffffffffff16815260200191505060405180910390f35b6106e7611079565b6040518080602001828103825283818151815260200191508051906020019080838360005b8381101561072757808201518184015260208101905061070c565b50505050905090810190601f1680156107545780820380516001836020036101000a031916815260200191505b509250505060405180910390f35b6107b06004803603604081101561077857600080fd5b81019080803573ffffffffffffffffffffffffffffffffffffffff1690602001909291908035151590602001909291905050506110b2565b005b6107f4600480360360208110156107c857600080fd5b81019080803573ffffffffffffffffffffffffffffffffffffffff169060200190929190505050611162565b005b6108426004803603604081101561080c57600080fd5b81019080803573ffffffffffffffffffffffffffffffffffffffff169060200190929190803590602001909291905050506111fe565b005b6108706004803603602081101561085a57600080fd5b8101908080359060200190929190505050611293565b604051808273ffffffffffffffffffffffffffffffffffffffff1673ffffffffffffffffffffffffffffffffffffffff16815260200191505060405180910390f35b610973600480360360808110156108c857600080fd5b81019080803573ffffffffffffffffffffffffffffffffffffffff169060200190929190803573ffffffffffffffffffffffffffffffffffffffff169060200190929190803590602001909291908035906020019064010000000081111561092f57600080fd5b82018360208201111561094157600080fd5b8035906020019184600183028401116401000000008311171561096357600080fd5b90919293919293905050506112c6565b005b6109a16004803603602081101561098b57600080fd5b8101908080359060200190929190505050611332565b604051808273ffffffffffffffffffffffffffffffffffffffff1673ffffffffffffffffffffffffffffffffffffffff16815260200191505060405180910390f35b610a19600480360360408110156109f957600080fd5b810190808035906020019092919080359060200190929190505050611365565b6040518082815260200191505060405180910390f35b610a9160048036036040811015610a4557600080fd5b81019080803573ffffffffffffffffffffffffffffffffffffffff169060200190929190803573ffffffffffffffffffffffffffffffffffffffff169060200190929190505050611542565b604051808215151515815260200191505060405180910390f35b610ab36115d6565b6040518082815260200191505060405180910390f35b60006380ac58cd60e01b7bffffffffffffffffffffffffffffffffffffffffffffffffffffffff1916827bffffffffffffffffffffffffffffffffffffffffffffffffffffffff19161480610b6257506301ffc9a760e01b7bffffffffffffffffffffffffffffffffffffffffffffffffffffffff1916827bffffffffffffffffffffffffffffffffffffffffffffffffffffffff1916145b9050919050565b6040518060400160405280600881526020017f4e656f6e6361747300000000000000000000000000000000000000000000000081525081565b60006001805490508210610bb557600080fd5b6005600083815260200190815260200160002060009054906101000a900473ffffffffffffffffffffffffffffffffffffffff169050919050565b610bfa33826115dc565b610c0357600080fd5b610c0d8282611648565b808273ffffffffffffffffffffffffffffffffffffffff163373ffffffffffffffffffffffffffffffffffffffff167f8c5be1e5ebec7d5bd14f71427d1e84f3dd0314c0f7b2291e5b200ac8c7c3b92560405160405180910390a45050565b60008060009054906101000a900473ffffffffffffffffffffffffffffffffffffffff1673ffffffffffffffffffffffffffffffffffffffff163373ffffffffffffffffffffffffffffffffffffffff1614610cc757600080fd5b600a60075410610cd657600080fd5b600760008154809291906001019190505550610cf76000806000853361169e565b9050919050565b6000600180549050905090565b610d17338484846118d1565b610d2057600080fd5b610d2b82848361198c565b505050565b60046020528160005260406000208181548110610d4957fe5b90600052602060002001600091509150505481565b610d7983838360405180602001604052806000815250611b48565b505050565b600080600080600060018681548110610d9357fe5b90600052602060002090600202016000015460018781548110610db257fe5b906000526020600020906002020160010160009054906101000a900467ffffffffffffffff1660018881548110610de557fe5b906000526020600020906002020160010160089054906101000a900463ffffffff1660018981548110610e1457fe5b9060005260206000209060020201600101600c9054906101000a900463ffffffff1660018a81548110610e4357fe5b906000526020600020906002020160010160109054906101000a900461ffff168367ffffffffffffffff1693508263ffffffff1692508163ffffffff1691508061ffff1690509450945094509450945091939590929450565b60006002600083815260200190815260200160002060009054906101000a900473ffffffffffffffffffffffffffffffffffffffff169050919050565b606080600360008473ffffffffffffffffffffffffffffffffffffffff1673ffffffffffffffffffffffffffffffffffffffff16815260200190815260200160002054604051908082528060200260200182016040528015610f4a5781602001602082028038833980820191505090505b509050600080905060008090505b600180549050811015610ffb578473ffffffffffffffffffffffffffffffffffffffff166002600083815260200190815260200160002060009054906101000a900473ffffffffffffffffffffffffffffffffffffffff1673ffffffffffffffffffffffffffffffffffffffff161415610fee5780838381518110610fd957fe5b60200260200101818152505081806001019250505b8080600101915050610f58565b508192505050919050565b6000600360008373ffffffffffffffffffffffffffffffffffffffff1673ffffffffffffffffffffffffffffffffffffffff168152602001908152602001600020549050919050565b600a81565b6000809054906101000a900473ffffffffffffffffffffffffffffffffffffffff1681565b6040518060400160405280600281526020017f4e4300000000000000000000000000000000000000000000000000000000000081525081565b8173ffffffffffffffffffffffffffffffffffffffff163373ffffffffffffffffffffffffffffffffffffffff1614156110eb57600080fd5b6110f58282611b6e565b8173ffffffffffffffffffffffffffffffffffffffff163373ffffffffffffffffffffffffffffffffffffffff167f17307eab39ab6107e8899845ad3d59bd9653f200f220920489ca2b5937696c3183604051808215151515815260200191505060405180910390a35050565b6000809054906101000a900473ffffffffffffffffffffffffffffffffffffffff1673ffffffffffffffffffffffffffffffffffffffff163373ffffffffffffffffffffffffffffffffffffffff16146111bb57600080fd5b806000806101000a81548173ffffffffffffffffffffffffffffffffffffffff021916908373ffffffffffffffffffffffffffffffffffffffff16021790555050565b600073ffffffffffffffffffffffffffffffffffffffff168273ffffffffffffffffffffffffffffffffffffffff16141561123857600080fd5b3073ffffffffffffffffffffffffffffffffffffffff168273ffffffffffffffffffffffffffffffffffffffff16141561127157600080fd5b61127b33826115dc565b61128457600080fd5b61128f33838361198c565b5050565b60026020528060005260406000206000915054906101000a900473ffffffffffffffffffffffffffffffffffffffff1681565b6112d2338686866118d1565b6112db57600080fd5b61132b85858585858080601f016020809104026020016040519081016040528093929190818152602001838380828437600081840152601f19601f82011690508083019250505050505050611b48565b5050505050565b60056020528060005260406000206000915054906101000a900473ffffffffffffffffffffffffffffffffffffffff1681565b600061137133846115dc565b6113e3576040517f08c379a000000000000000000000000000000000000000000000000000000000815260040180806020018281038252601e8152602001807f546865207573657220646f65736e2774206f776e2074686520746f6b656e000081525060200191505060405180910390fd5b6113ed33836115dc565b61145f576040517f08c379a000000000000000000000000000000000000000000000000000000000815260040180806020018281038252601e8152602001807f546865207573657220646f65736e2774206f776e2074686520746f6b656e000081525060200191505060405180910390fd5b828214156114d5576040517f08c379a00000000000000000000000000000000000000000000000000000000081526004018080602001828103825260198152602001807f436174204944732063616e2774206265207468652073616d650000000000000081525060200191505060405180910390fd5b6000806114e185610d7e565b945050505091506000806114f486610d7e565b9450505050915060006115078584611c06565b905060008090508285101561152157600183019050611528565b6001850190505b611535888a83853361169e565b5050505050505092915050565b6000600660008473ffffffffffffffffffffffffffffffffffffffff1673ffffffffffffffffffffffffffffffffffffffff16815260200190815260200160002060008373ffffffffffffffffffffffffffffffffffffffff1673ffffffffffffffffffffffffffffffffffffffff16815260200190815260200160002060009054906101000a900460ff16905092915050565b60075481565b60008273ffffffffffffffffffffffffffffffffffffffff166002600084815260200190815260200160002060009054906101000a900473ffffffffffffffffffffffffffffffffffffffff1673ffffffffffffffffffffffffffffffffffffffff1614905092915050565b816005600083815260200190815260200160002060006101000a81548173ffffffffffffffffffffffffffffffffffffffff021916908373ffffffffffffffffffffffffffffffffffffffff1602179055505050565b60006116a8611f73565b6040518060a001604052808581526020014267ffffffffffffffff1681526020018863ffffffff1681526020018763ffffffff1681526020018661ffff168152509050600060018083908060018154018082558091505090600182039060005260206000209060020201600090919290919091506000820151816000015560208201518160010160006101000a81548167ffffffffffffffff021916908367ffffffffffffffff16021790555060408201518160010160086101000a81548163ffffffff021916908363ffffffff160217905550606082015181600101600c6101000a81548163ffffffff021916908363ffffffff16021790555060808201518160010160106101000a81548161ffff021916908361ffff1602179055505050039050600460003373ffffffffffffffffffffffffffffffffffffffff1673ffffffffffffffffffffffffffffffffffffffff1681526020019081526020016000208190806001815401808255809150509060018203906000526020600020016000909192909190915055507f0a5311bd2a6608f08a180df2ee7c5946819a649b204b554bb8e39825b2c50ad584828a8a89604051808673ffffffffffffffffffffffffffffffffffffffff1673ffffffffffffffffffffffffffffffffffffffff1681526020018581526020018481526020018381526020018281526020019550505050505060405180910390a16118c36000858361198c565b809250505095945050505050565b600060018054905082106118e457600080fd5b600073ffffffffffffffffffffffffffffffffffffffff168373ffffffffffffffffffffffffffffffffffffffff16141561191e57600080fd5b61192884836115dc565b61193157600080fd5b8373ffffffffffffffffffffffffffffffffffffffff168573ffffffffffffffffffffffffffffffffffffffff16148061197157506119708583611d0a565b5b8061198257506119818486611542565b5b9050949350505050565b600360008373ffffffffffffffffffffffffffffffffffffffff1673ffffffffffffffffffffffffffffffffffffffff16815260200190815260200160002060008154809291906001019190505550816002600083815260200190815260200160002060006101000a81548173ffffffffffffffffffffffffffffffffffffffff021916908373ffffffffffffffffffffffffffffffffffffffff160217905550600073ffffffffffffffffffffffffffffffffffffffff168373ffffffffffffffffffffffffffffffffffffffff1614611ae857600360008473ffffffffffffffffffffffffffffffffffffffff1673ffffffffffffffffffffffffffffffffffffffff16815260200190815260200160002060008154809291906001900391905055506005600082815260200190815260200160002060006101000a81549073ffffffffffffffffffffffffffffffffffffffff02191690555b808273ffffffffffffffffffffffffffffffffffffffff168473ffffffffffffffffffffffffffffffffffffffff167fddf252ad1be2c89b69c2b068fc378daa952ba7f163c4a11628f55a4df523b3ef60405160405180910390a4505050565b611b5384848461198c565b611b5f84848484611d76565b611b6857600080fd5b50505050565b80600660003373ffffffffffffffffffffffffffffffffffffffff1673ffffffffffffffffffffffffffffffffffffffff16815260200190815260200160002060008473ffffffffffffffffffffffffffffffffffffffff1673ffffffffffffffffffffffffffffffffffffffff16815260200190815260200160002060006101000a81548160ff0219169083151502179055505050565b6000611c10611fbc565b600060019050600060ff4281611c2257fe5b069050600060079050600192505b60808311611cbc576000838360ff161614611c6d5760648681611c4f57fe5b0660ff16848260088110611c5f57fe5b602002018181525050611c91565b60648781611c7757fe5b0660ff16848260088110611c8757fe5b6020020181815250505b60648681611c9b57fe5b04955060648781611ca857fe5b049650600181039050600283029250611c30565b60008093505b6008841015611cfc57848460088110611cd757fe5b60200201518101905060078414611cef576064810290505b8380600101945050611cc2565b809550505050505092915050565b60008273ffffffffffffffffffffffffffffffffffffffff166005600084815260200190815260200160002060009054906101000a900473ffffffffffffffffffffffffffffffffffffffff1673ffffffffffffffffffffffffffffffffffffffff1614905092915050565b6000611d8184611f5a565b611d8e5760019050611f52565b60008473ffffffffffffffffffffffffffffffffffffffff1663150b7a02338887876040518563ffffffff1660e01b8152600401808573ffffffffffffffffffffffffffffffffffffffff1673ffffffffffffffffffffffffffffffffffffffff1681526020018473ffffffffffffffffffffffffffffffffffffffff1673ffffffffffffffffffffffffffffffffffffffff16815260200183815260200180602001828103825283818151815260200191508051906020019080838360005b83811015611e69578082015181840152602081019050611e4e565b50505050905090810190601f168015611e965780820380516001836020036101000a031916815260200191505b5095505050505050602060405180830381600087803b158015611eb857600080fd5b505af1158015611ecc573d6000803e3d6000fd5b505050506040513d6020811015611ee257600080fd5b810190808051906020019092919050505090506040518080611fe0602f9139602f01905060405180910390207bffffffffffffffffffffffffffffffffffffffffffffffffffffffff1916817bffffffffffffffffffffffffffffffffffffffffffffffffffffffff1916149150505b949350505050565b600080823b905060008163ffffffff1611915050919050565b6040518060a0016040528060008152602001600067ffffffffffffffff168152602001600063ffffffff168152602001600063ffffffff168152602001600061ffff1681525090565b60405180610100016040528060089060208202803883398082019150509050509056fe6f6e455243373231526563656976656428616464726573732c616464726573732c75696e743235362c627974657329a265627a7a723158208c9be0ee5529e2b0eb80594548f209df84628ddfba6cf7278543c8cae6d3651e64736f6c634300050c0032",
  "source": "// SPDX-License-Identifier: SPDX-License\n\npragma solidity 0.5.12;\n\nimport \"./IERC721.sol\";\nimport \"./Ownable.sol\";\nimport \"./IERC721Receiver.sol\";\n\ncontract Catscontract is IERC721, Ownable {\n\n    uint256 public constant supplyLimitGen0 = 10;\n    string public constant name = \"Neoncats\";\n    string public constant symbol = \"NC\";\n    \n    bytes4 internal constant MAGIC_ERC721_RECEIVED = bytes4(keccak256(\"onERC721Received(address,address,uint256,bytes)\")); \n\n    bytes4 private constant _INTERFACE_ID_ERC721 = 0x80ac58cd;\n\n    bytes4 private constant _INTERFACE_ID_ERC165 = 0x01ffc9a7;\n\n    struct Neoncat {\n        uint256 genes;\n        uint64 birthTime;\n        uint32 mumId;\n        uint32 dadId;\n        uint16 generation;\n    }\n\n    Neoncat[] neoncats;\n\n    mapping(uint256 => address) public catIndexToOwner;\n    mapping(address => uint256) ownershipTokenCount;\n    mapping(address => uint256[]) public ownerCats;\n    \n    mapping(uint256 => address) public neonCatIndexToApproved;\n    mapping(address => mapping (address => bool)) private _operatorApprovals;\n    \n    event Birth(address owner, uint256 newCatId, uint256 mumId, uint256 dadId, uint256 genes);\n    event Transfer(address indexed from, address indexed to, uint256 indexed tokenId);\n    event Approval(address indexed owner, address indexed approved, uint256 indexed tokenId);\n    event ApprovalForAll(address indexed owner, address indexed operator, bool approved);\n\n    uint256 public gen0Counter;\n\n   function breed(uint256 _dadId, uint256 _mumId) public returns (uint256){\n        require(_owns(msg.sender, _dadId), \"The user doesn't own the token\"); // check ownership\n        require(_owns(msg.sender, _mumId), \"The user doesn't own the token\"); // check ownership\n        require ((_mumId != _dadId), \"Cat IDs can't be the same\"); // assure two different cats are chosen for breeding\n        // you got the DNA\n        // get DNA and generation from mum and dad\n        ( uint256 dadDna,,,,uint256 dadGen ) = getCat(_dadId);\n        ( uint256 mumDna,,,,uint256 mumGen ) = getCat(_mumId);\n        \n        uint256 newDna = _mixDna(dadDna, mumDna);\n        \n\n        // Figure out the generation: Add generation numbers, i.e. Gen0 + Gen1 = Gen1, Gen1 + Gen1 = Gen2, Gen1 + Gen2 = Gen3\n        uint256 kidGen = 0;\n    \n        if (dadGen < mumGen) {\n            kidGen = mumGen + 1;\n        } else {\n            kidGen = dadGen + 1;\n        }\n        \n            _createNeonCat( _mumId, _dadId, kidGen, newDna, msg.sender);\n    }\n    \n        function _mixDna(uint256 _dadDna, uint256 _mumDna) internal returns (uint256) {\n           \n            uint256[8] memory geneArray;\n            uint256 i = 1;\n            uint8 random = uint8( now % 255 ); // yields binary between 00000000-11111111\n            uint256 index = 7;\n            \n            for (i = 1; i <= 128; i=i*2)   {    // 1, 2, 4, 8, 16, 32, 64, 128\n                if(random & i != 0){\n                    geneArray[index] = uint8( _mumDna % 100 );\n                }\n                else{\n                    geneArray[index] = uint8( _dadDna % 100 );\n                }\n                _mumDna = _mumDna / 100;\n                _dadDna = _dadDna / 100;\n\n                index = index -1;\n            }\n            uint256 newGene;\n            \n            for (i = 0; i < 8; i++){ \n                newGene = newGene + geneArray[i];\n\n                if(i != 7){\n                    newGene = newGene * 100;\n                }\n            }\n            \n            return newGene;\n        }    \n            \n          \n\n\n    function supportsInterface(bytes4 _interfaceId) external view returns (bool){\n        return ( _interfaceId == _INTERFACE_ID_ERC721 || _interfaceId == _INTERFACE_ID_ERC165 );\n        }\n\n    // set mumID, dadID and generation to 0, _genes from input and owner = 0address / msg.sender\n    // create var to limit 0 generation to max amount 10, add require and increase counter\n    function createCatGen0(uint256 _genes) public onlyOwner returns (uint256){\n        require(gen0Counter < supplyLimitGen0);\n        // assure no DNA duplicates via a if-condition that stops generation if this condition is not met:  _genes != _existingGenes\n        // how to access existing genes? --> Birth event?\n\n        gen0Counter++;\n\n        return _createNeonCat(0, 0, 0, _genes, msg.sender);\n     }\n\n    function getNeonCatsPerOwner(address _owner) external view returns (uint [] memory){\n        uint[] memory result = new uint[](ownershipTokenCount[_owner]);\n        uint counter = 0;\n        for(uint i = 0; i < neoncats.length; i++){\n            if (catIndexToOwner[i] == _owner) {\n                result[counter] = i;\n                counter++;\n            }\n        }\n        return result;\n    }\n\n\n    function getCat(uint256 _tokenId) public view returns(\n        uint256 genes, \n        uint256 birthTime, \n        uint256 mumId, \n        uint256 dadId, \n        uint256 generation\n    )\n    {        \n        \n        //Neoncat storage neoncat = neoncats[_tokenId];\n        return(neoncats[_tokenId].genes, neoncats[_tokenId].birthTime, neoncats[_tokenId].mumId, neoncats[_tokenId].dadId, neoncats[_tokenId].generation);\n    }\n\n    // function is private as meant to be executed only from within this contract \n    function _createNeonCat(uint256 _mumId, uint256 _dadId, uint256 _generation, uint256 _genes, address _owner\n    ) private returns (uint256){\n        Neoncat memory _neoncat = Neoncat({\n            genes: _genes,\n            birthTime: uint64(now),\n            mumId: uint32(_mumId),\n            dadId: uint32(_dadId),\n            generation: uint16(_generation)\n        });\n\n        // is the same as \n        // _neoncat.genes = genes;\n        // _neoncat.birthTime = uint64(now); etc.\n\n        uint256 newCatId = neoncats.push(_neoncat) -1;\n        \n        ownerCats[msg.sender].push(newCatId);\n\n        emit Birth(_owner, newCatId, _mumId, _dadId, _genes);\n\n        _transfer(address(0), _owner, newCatId);\n\n        return newCatId;\n    }\n\n    \n\n    function balanceOf(address owner) external view returns (uint256 balance){\n        return ownershipTokenCount[owner];\n    }\n\n    function totalSupply() public view returns (uint256) {\n        return neoncats.length;\n    }\n     /**\n     * @dev Returns the owner of the `tokenId` token.\n     *\n     * Requirements:\n     *\n     * - `tokenId` must exist.\n     */\n    function ownerOf(uint256 _tokenId) external view returns (address){\n        return catIndexToOwner[_tokenId];\n    }\n\n    function safeTransferFrom(address _from, address _to, uint256 _tokenId) public {\n        _safeTransfer(_from, _to, _tokenId, \"\");\n        }\n\n    function safeTransferFrom(address _from, address _to, uint256 _tokenId, bytes calldata _data) external{\n        require( _isApprovedOrOwner(msg.sender, _from, _to, _tokenId) );\n        _safeTransfer(_from, _to, _tokenId, _data);\n    }\n\n    function _safeTransfer(address _from, address _to, uint256 _tokenId, bytes memory _data) internal {\n        _transfer(_from, _to, _tokenId);\n        require( _checkERC721Support(_from, _to, _tokenId, _data) );\n    }\n\n    function _checkERC721Support(address _from, address _to, uint256 _tokenId, bytes memory _data) internal returns (bool) {\n        if( !_isContract(_to) ){\n            return true;\n        }\n        //Call onERC721Received in the _to contract\n        bytes4 returnData = IERC721Receiver(_to).onERC721Received(msg.sender, _from, _tokenId, _data);\n        // Check return value\n        return returnData == MAGIC_ERC721_RECEIVED;    \n        }\n\n    function _isContract(address _to) view internal returns (bool) {\n        uint32 size;\n        assembly {\n            size := extcodesize(_to)\n        }\n        return size > 0;\n    }\n\n    function _isApprovedOrOwner(address _spender, address _from, address _to, uint256 _tokenId) internal returns(bool){\n        require(_tokenId < neoncats.length); // token must exist\n        require(_to != address(0)); // TO address cant be zero address\n        require(_owns(_from, _tokenId)); // From owns the token\n        // spender is from OR spender is approved for tokenId OR spender is operator for from\n        return(_spender == _from || _approvedFor(_spender, _tokenId) || isApprovedForAll(_from, _spender));\n    }\n\n    function transfer(address _to, uint256 _tokenId) external{\n        require(_to != address(0));\n        require(_to != address(this));\n        require(_owns(msg.sender, _tokenId));\n\n        _transfer(msg.sender, _to, _tokenId);\n    }\n\n    function _transfer(address _from, address _to, uint256 _tokenId) internal {\n        ownershipTokenCount[_to]++;\n\n        catIndexToOwner[_tokenId] = _to;\n\n        if (_from != address(0)) {\n            ownershipTokenCount[_from]--;\n            delete neonCatIndexToApproved[_tokenId];\n        }\n\n        emit Transfer(_from, _to, _tokenId);\n    }\n\n    function _owns(address _claimant, uint256 _tokenId) internal view returns (bool){\n        return (catIndexToOwner[_tokenId] == _claimant);\n    }\n    function isApprovedForAll(address owner, address operator) public view returns (bool){\n        return _operatorApprovals[owner][operator];\n    }\n\n    function transferFrom(address _from, address _to, uint256 _tokenId) public {\n        require( _isApprovedOrOwner(msg.sender, _from, _to, _tokenId) );\n\n        _transfer(_to, _from, _tokenId);\n    }\n        function _approvedFor(address _claimant, uint256 _tokenId) internal view returns (bool) {\n            return neonCatIndexToApproved[_tokenId] == _claimant;\n        }\n   \n\n\n    function approve(address _to, uint256 _tokenId) external {\n        require(_owns(msg.sender, _tokenId));\n\n        _approve(_to, _tokenId);\n        emit Approval(msg.sender, _to, _tokenId);\n        }\n    \n        function _approve(address approved, uint256 _tokenId) internal {\n            neonCatIndexToApproved[_tokenId] = approved;\n        }\n        \n    function getApproved(uint256 _tokenId) public view returns (address) {\n        require(_tokenId < neoncats.length); // token must exist\n        \n        return neonCatIndexToApproved[_tokenId];\n    }\n\n    function setApprovalForAll(address operator, bool approved) external {\n        require(msg.sender != operator);\n\n        _setApprovalForAll(operator, approved);\n        emit ApprovalForAll(msg.sender, operator, approved);\n    }\n        function _setApprovalForAll(address operator, bool approved) internal {\n            _operatorApprovals[msg.sender][operator] = approved;\n            \n        }\n    \n}\n",
  "sourcePath": "/Users/imac/Nextcloud/Documents/GitHub/neon-kitties/contracts/Catcontract.sol",
  "compiler": {
    "name": "solc",
    "version": "0.5.12+commit.7709ece9.Emscripten.clang"
  },
  "schemaVersion": "3.3.1",
  "updatedAt": "2020-12-30T12:35:56.826Z",
  "networkType": "ethereum",
  "devdoc": {
    "methods": {
      "ownerOf(uint256)": {
        "details": "Returns the owner of the `tokenId` token.     * Requirements:     * - `tokenId` must exist."
      }
    }
  },
  "userdoc": {
    "methods": {}
  }
}